:100675005772697465204F6B0020202020202020B0
:10068500200052656164204F6B002020202020202F
:02069500200043
:0406F5000234004289
:10018C0012072480261203EB8F33EF6401700E05E7
:10019C0035E53570020534751D05FB8013E53364B8
:1001AC00027018E535153570021534751D05AB3523
:1001BC00AA347D017F0112060A80CAE533640370FC
:1001CC0040E534FDE4FF1206977F057E00120738E8
:1001DC00AD357F011206977F057E001207387BFF35
:1001EC007A0679757D017F021206527FE87E031232
:1001FC0007387BFF7A06797E7D017F0212065280DA
:10020C0084E53364046003020191FF1205B7753471
:10021C00008F357F011205B7EFFDE535F534EDF5AF
:10022C0035751D05FBAA347D017F0112060A7BFF83
:10023C007A0679877D017F021206527FE87E0312CF
:10024C0007387BFF7A06798F7D017F0212065202F6
:02025C0001910E
:10074C00202020202020202020202020202020209D
:01075C00009C
:1006F90011083F065B4F666D7D077F6F777C395E1A
:0307090079710003
:10037E00EF14B40800505490039375F003A4C58392
:10038E0025F0C583730203AB0203AF0203B302036E
:10039E00B70203BB0203C30203CB0203D3D2A48072
:1003AE000ED2A48012D2A48016D2A4801AC2A4D2D5
:1003BE00A3D2A28016C2A4D2A3C2A2800EC2A4C28D
:1003CE00A3D2A28006C2A4C2A3C2A274082DF8E6CC
:0D03DE00F5807F017E00120738E4F58022D3
:06075D00C2A58F80D2A7A7
:080763007F027EEFDEFEDFFCE9
:01076B00226B
:0A078300C2A612075DC2A7020763B9
:1006B900CFCDCFCECCCE12029D7C007D0A12029DF9
:0406C900ED2430FFED
:0A06CD00D2A612075DC2A702076360
:1006D700AE07EEFB7A0064017004ED148009EB6449
:0E06E700024A7009ED243F4480FF120783226F
:100724007F381207837F0C1207837F061207837FAB
:040734000102078334
:0A078D00AC031206D7AF040206CD3C
:060652008B198A1A891BB6
:100658001206D7E4FDAB19AA1AA91B8D827583006F
:0C06680012025EFF60061206CD0D80E954
:010674002263
:0A058600EF24FFFDEE34FFFC7F0AB6
:080590008E1E8F1F8C208D21AF
:100598007F017E00E4FBEBC39521E5206480F874BD
:0E05A8008098500AAC1EAD1F12028B0B80E82B
:0105B6002222
:04060A008A1B8B1CA0
:10060E001206D7AA1DEAFF7E00D394007480948050
:0F061E00400D120586AC1BAD1C1206B91A80E602
:01062D0022AA
:040497008B828A8347
:10049B001206D7C3E58364809480400D7F2B120630
:1004AB00CD85832785822880107F2D1206CDC3E44E
:1004BB009582F528E49583F527AA26EAFF7E00D3DB
:1004CB00940074809480400D120586AC27AD2812E1
:0504DB0006B91A80E6DD
:0104E00022F9
:04044C008A2B8B2C40
:100450001206D7AA2DEAD39400748094804037EA1C
:1004600024FFFDE434FFFC7F107E00120590AC2BCE
:10047000AD2CCFCDCFCECCCE12029DEF540FFEC30C
:10048000940A74809480EE5004243080022437FF54
:060490001206CD1A80BF28
:010496002243
:0404E1008A308B31A1
:1004E5001206D7AA32EAFF7E00D394007480948066
:1004F5004026EF24FFFDEE34FFFC7F02120590AC91
:1005050030AD31CFCDCFCECCCE12029DEF540124EC
:0805150030FF1206CD1A80CD63
:01051D0022BB
:0B0778007BFF7A07794C7D01020652DE
:02051E00AD0727
:10052000E4FBEBC394087480948050237E007480B5
:10053000A803088006CEA2E713CE13D8F8FFEDF586
:1005400082EF558224FF92B4D2B6C2B60B80D3D2CA
:03055000B5C2B57C
:010553002285
:10062E00AE05AC07AF0612051EAF04A8077480080E
:10063E008002C313D8FCF4F5807F017E00120738C8
:04064E007580FF2292
:0507B100C2B6C2B52232
:10000300E4F5367590FFC2932097137F14FE120711
:10001300383097FD7F147E0012073875360120961D
:10002300147F147E001207383096FD7F147E001271
:1000330007387536052095147F147E001207383073
:1000430095FD7F147E001207387536092094147FBE
:10005300147E001207383094FD7F147E0012073897
:1000630075360D7590FFC2922097147F147E00128F
:1000730007383097FD7F147E00120738753602204B
:1000830096147F147E001207383096FD7F147E008D
:100093001207387536062095147F147E0012073830
:1000A3003095FD7F147E0012073875360A209414AC
:1000B3007F147E001207383094FD7F147E001207F0
:1000C3003875360E7590FFC2912097147F147E0009
:1000D3001207383097FD7F147E00120738753603F8
:1000E3002096147F147E001207383096FD7F147E0D
:1000F300001207387536072095147F147E00120707
:10010300383095FD7F147E0012073875360B209426
:10011300147F147E001207383094FD7F147E001282
:10012300073875360F7590FFC2902097147F147EA1
:10013300001207383097FD7F147E0012073875369A
:10014300042096147F147E001207383096FD7F1426
:100153007E001207387536082095147F147E00122E
:1001630007383095FD7F147E0012073875360C2052
:1001730094147F147E001207383094FD7F147E00A0
:08018300120738753610AF3683
:01018B002251
:1003EB00E4F51920B1137F14FE12073830B1FD7FED
:1003FB00147E0012073875190120B0147F147E008B
:10040B0012073830B0FD7F147E00120738751902C1
:10041B0020B2147F147E0012073830B2FD7F147E99
:10042B000012073875190320B3147F147E001207CE
:10043B003830B3FD7F147E00120738751904AF19DD
:01044B00228E
:10070D005389F0438901758A66758CFCC28DD28C34
:07071D00D2A9D2AFC2B9223C
:10073800EF4E600F7D027CEFDCFEDDFCEF1F70F0FA
:030748001E80ED23
:01074B00228B
:0907A100D2A0D2A1C2A0C2A12283
:0707AA00C2A0D2A1D2A022DF
:02055400AD07F1
:10055600E4FBEBC394087480948050237E0074807F
:10056600A803088006CEA2E713CE13D8F8FFEDF550
:0F05760082EF558224FF92A0D2A1C2A10B80D3A5
:010585002253
:1005E400D2A0E4FEEEC39408748094805017D2A184
:1005F40030A00DA8067480088002C313D8FC4207FB
:05060400C2A10E80DF21
:0106090022CE
:0A079700EF24FF92A0D2A1C2A1221C
:0B076C00D2A0D2A1A2A0E433FFC2A1E2
:01077700225F
:100697008F198D1A1207A17FA012055412076CAF8C
:1006A7001912055412076CAF1A12055412076C027F
:0206B70007AA90
:0205B7008F199A
:1005B9001207A17FA012055412076CAF1912055436
:1005C90012076C1207A17FA112055412076C1205BC
:0A05D900E48F1A7F01120797AF1A92
:0105E30022F5
:030000000202F207
:0C02F200787FE4F6D8FD758136020339F0
:10025E00BB010CE58229F582E5833AF583E0225055
:10026E0006E92582F8E622BBFE06E92582F8E2229F
:0D027E00E58229F582E5833AF583E49322B9
:10028B00EF8DF0A4A8F0CF8CF0A428CE8DF0A42E87
:02029B00FE2241
:10029D00BC000BBE0029EF8DF084FFADF022E4CC45
:1002AD00F875F008EF2FFFEE33FEEC33FCEE9DEC0E
:1002BD00984005FCEE9DFE0FD5F0E9E4CEFD22ED54
:1002CD00F8F5F0EE8420D21CFEADF075F008EF2F9E
:1002DD00FFED33FD4007985006D5F0F222C398FD8F
:0502ED000FD5F0EA222C
:1002FE0002018CE493A3F8E493A34003F68001F289
:10030E0008DFF48029E493A3F85407240CC8C33300
:10031E00C4540F4420C8834004F456800146F6DFCF
:10032E00E4800B01020408102040809006F5E47E64
:10033E00019360BCA3FF543F30E509541FFEE493C4
:10034E00A360010ECF54C025E060A840B8E493A38B
:10035E00FAE493A3F8E493A3C8C582C8CAC583CAB6
:10036E00F0A3C8C582C8CAC583CADFE9DEE780BE6E
:01070C0000EC
:00000001FF
