:0606D40048656C6C6F002C
:100604001206337BFF7A0679D47D017F01120583BC
:08061400E4FDFF1205A680FEC3
:10066F00202020202020202020202020202020207B
:01067F00007A
:1006470011083F065B4F666D7D077F6F777C395ECC
:03065700797100B6
:1002AC00EF14B4080050549002C175F003A4C58338
:1002BC0025F0C583730202D90202DD0202E10202BB
:1002CC00E50202E90202F10202F9020301D2A48062
:1002DC000ED2A48012D2A48016D2A4801AC2A4D2A8
:1002EC00A3D2A28016C2A4D2A3C2A2800EC2A4C260
:1002FC00A3D2A28006C2A4C2A3C2A274082DF8E69F
:0D030C00F5807F017E0012065BE4F5802283
:06068000C2A58F80D2A785
:080686007F027EEFDEFEDFFCC7
:01068E002249
:0A06A600C2A6120680C2A702068653
:1005C800CFCDCFCECCCE1201CB7C007D0A1201CB91
:0405D800ED2430FFDF
:0A05DC00D2A6120680C2A70206860E
:1005E600AE07EEFB7A0064017004ED148009EB643B
:0E05F600024A7009ED243F4480FF1206A6223F
:100633007F381206A67F0C1206A67F061206A67F37
:04064300010206A604
:0A06B000AC031205E6AF040205DCFE
:060583008B338A34893538
:100589001205E6E4FDAB33AA34A9358D82758300E3
:0C05990012018CFF60061205DC0D80E9E9
:0105A5002233
:0A04B400EF24FFFDEE34FFFC7F0A89
:0804BE008E2F8F308C318D323E
:1004C6007F017E00E4FBEBC39532E5316480F8746E
:0E04D6008098500AAC2FAD301201B90B80E8AF
:0104E40022F5
:04053B008A228B2362
:10053F001205E6AA24EAFF7E00D39400748094800B
:0F054F00400D1204B4AC22AD231205C81A80E689
:01055E00227A
:0403C5008B828A831A
:1003C9001205E6C3E58364809480400D7F2B1205F6
:1003D900DC85831E85821F80107F2D1205DCC3E416
:1003E9009582F51FE49583F51EAA1DEAFF7E00D3C9
:1003F900940074809480400D1204B4AC1EAD1F1299
:0504090005C81A80E6A1
:01040E0022CB
:04037A008A278B281B
:10037E001205E6AA29EAD39400748094804037EAE5
:10038E0024FFFDE434FFFC7F107E001204BEAC2778
:10039E00AD28CFCDCFCECCCE1201CBEF540FFEC3B6
:1003AE00940A74809480EE5004243080022437FF27
:0603BE001205DC1A80BFED
:0103C4002216
:04040F008A2C8B2D7B
:100413001205E6AA2EEAFF7E00D39400748094802E
:100423004026EF24FFFDEE34FFFC7F021204BEAC36
:100433002CAD2DCFCDCFCECCCE1201CBEF5401249A
:0804430030FF1205DC1A80CD28
:01044B00228E
:0B069B007BFF7A06796F7D010205836A
:02044C00AD07FA
:10044E00E4FBEBC394087480948050237E00748088
:10045E00A803088006CEA2E713CE13D8F8FFEDF559
:10046E0082EF558224FF92B4D2B6C2B60B80D3D29D
:03047E00B5C2B54F
:010481002258
:10055F00AE05AC07AF0612044CAF04A807748008B1
:10056F008002C313D8FCF4F5807F017E0012065B76
:04057F007580FF2262
:0506DA00C2B6C2B5220A
:10000300E4F5387590FFC2932097137F14FE120610
:100013005B3097FD7F147E0012065B7538012096D6
:10002300147F147E0012065B3096FD7F147E00124F
:10003300065B7538052095147F147E0012065B302D
:1000430095FD7F147E0012065B7538092094147F9A
:10005300147E0012065B3094FD7F147E0012065B53
:1000630075380D7590FFC2922097147F147E00128D
:10007300065B3097FD7F147E0012065B7538022005
:1000830096147F147E0012065B3096FD7F147E006B
:1000930012065B7538062095147F147E0012065BEA
:1000A3003095FD7F147E0012065B75380A20941488
:1000B3007F147E0012065B3094FD7F147E001206CF
:1000C3005B75380E7590FFC2912097147F147E00E4
:1000D30012065B3097FD7F147E0012065B753803B2
:1000E3002096147F147E0012065B3096FD7F147EEB
:1000F3000012065B7538072095147F147E001206E4
:100103005B3095FD7F147E0012065B75380B2094DF
:10011300147F147E0012065B3094FD7F147E001260
:10012300065B75380F7590FFC2902097147F147E7D
:100133000012065B3097FD7F147E0012065B753854
:10014300042096147F147E0012065B3096FD7F1404
:100153007E0012065B7538082095147F147E00120A
:10016300065B3095FD7F147E0012065B75380C200C
:1001730094147F147E0012065B3094FD7F147E007E
:0801830012065B753810AF385D
:01018B002251
:10031900E4F53920B1137F14FE12065B30B1FD7F7D
:10032900147E0012065B75390120B0147F147E001B
:1003390012065B30B0FD7F147E0012065B75390230
:1003490020B2147F147E0012065B30B2FD7F147E4A
:100359000012065B75390320B3147F147E00120660
:100369005B30B3FD7F147E0012065B753904AF392B
:010379002261
:10061C005389F0438901758A66758CFCC28DD28C26
:07062C00D2A9D2AFC2B9222E
:10065B00EF4E600F7D027CEFDCFEDDFCEF1F70F0D8
:03066B001E80ED01
:01066E002269
:0906C400D2A0D2A1C2A0C2A12261
:0706CD00C2A0D2A1D2A022BD
:02048200AD07C4
:10048400E4FBEBC394087480948050237E00748052
:10049400A803088006CEA2E713CE13D8F8FFEDF523
:0F04A40082EF558224FF92A0D2A1C2A10B80D378
:0104B3002226
:10051500D2A0E4FEEEC39408748094805017D2A153
:1005250030A00DA8067480088002C313D8FC4207CA
:05053500C2A10E80DFF1
:01053A00229E
:0A06BA00EF24FF92A0D2A1C2A122FA
:0B068F00D2A0D2A1A2A0E433FFC2A1C0
:01069A00223D
:1005A6008F338D341206C47FA012048212068FAFD9
:1005B6003312048212068FAF3412048212068F029F
:0205C60006CD60
:0204E5008F3650
:1004E7001206C47FA012048212068FAF361204824E
:1004F70012068F1206C4E5364401FF120482120663
:0D0507008F1205158F377F011206BAAF372E
:0105140022C4
:03000000020220D9
:0C022000787FE4F6D8FD75813902026792
:10018C00BB010CE58229F582E5833AF583E0225028
:10019C0006E92582F8E622BBFE06E92582F8E22272
:0D01AC00E58229F582E5833AF583E493228C
:1001B900EF8DF0A4A8F0CF8CF0A428CE8DF0A42E5A
:0201C900FE2214
:1001CB00BC000BBE0029EF8DF084FFADF022E4CC18
:1001DB00F875F008EF2FFFEE33FEEC33FCEE9DECE1
:1001EB00984005FCEE9DFE0FD5F0E9E4CEFD22ED27
:1001FB00F8F5F0EE8420D21CFEADF075F008EF2F71
:10020B00FFED33FD4007985006D5F0F222C398FD61
:05021B000FD5F0EA22FE
:10022C00020604E493A3F8E493A34003F68001F2DE
:10023C0008DFF48029E493A3F85407240CC8C333D3
:10024C00C4540F4420C8834004F456800146F6DFA2
:10025C00E4800B0102040810204080900647E47EE5
:10026C00019360BCA3FF543F30E509541FFEE49397
:10027C00A360010ECF54C025E060A840B8E493A35E
:10028C00FAE493A3F8E493A3C8C582C8CAC583CA89
:10029C00F0A3C8C582C8CAC583CADFE9DEE780BE41
:01065A00009F
:00000001FF
