:10051A00E4FD7F011202AC1203158F36E53660F74F
:10052A007F647E00120576AD367F011202AC80E749
:10059100EF4E600F7D027CEFDCFEDDFCEF1F70F0A3
:0305A1001E80EDCC
:0105A4002234
:1005CD00202020202020202020202020202020201E
:0105DD00001D
:1005B90011083F065B4F666D7D077F6F777C395E5B
:0305C90079710045
:1002AC00EF14B4080050549002C175F003A4C58338
:1002BC0025F0C583730202D90202DD0202E10202BB
:1002CC00E50202E90202F10202F9020301D2A48062
:1002DC000ED2A48012D2A48016D2A4801AC2A4D2A8
:1002EC00A3D2A28016C2A4D2A3C2A2800EC2A4C260
:1002FC00A3D2A28006C2A4C2A3C2A274082DF8E69F
:09030C00F5807F017E00020591DD
:0605DE00C2A58F80D2A728
:0805E4007F027EEFDEFEDFFC6A
:0105EC0022EC
:0A05F800C2A61205DEC2A70205E448
:10053A00CFCDCFCECCCE1201CB7C007D0A1201CB1F
:04054A00ED2430FF6D
:0A054E00D2A61205DEC2A70205E4E2
:10055800AE07EEFB7A0064017004ED148009EB64C9
:0E056800024A7009ED243F4480FF1205F8227C
:1005A5007F381205F87F0C1205F87F061205F87FD3
:0405B500010205F842
:0A060200AC03120558AF0402054EC8
:0604F7008B338A348935C5
:1004FD00120558E4FDAB33AA34A9358D82758300FE
:0C050D0012018CFF600612054E0D80E903
:0105190022BF
:0A047E00EF24FFFDEE34FFFC7F0ABF
:080488008E2F8F308C318D3274
:100490007F017E00E4FBEBC39532E5316480F874A4
:0E04A0008098500AAC2FAD301201B90B80E8E5
:0104AE00222B
:0404AF008A228B23EF
:1004B300120558AA24EAFF7E00D394007480948026
:0F04C300400D12047EAC22AD2312053A1A80E6DA
:0104D2002207
:0403C1008B828A831E
:1003C500120558C3E58364809480400D7F2B120588
:1003D5004E85831E85821F80107F2D12054EC3E436
:1003E5009582F51FE49583F51EAA1DEAFF7E00D3CD
:1003F500940074809480400D12047EAC1EAD1F12D3
:05040500053A1A80E633
:01040A0022CF
:040376008A278B281F
:10037A00120558AA29EAD39400748094804037EA77
:10038A0024FFFDE434FFFC7F107E00120488AC27B2
:10039A00AD28CFCDCFCECCCE1201CBEF540FFEC3BA
:1003AA00940A74809480EE5004243080022437FF2B
:0603BA0012054E1A80BF7F
:0103C000221A
:04040B008A2C8B2D7F
:10040F00120558AA2EEAFF7E00D3940074809480C0
:10041F004026EF24FFFDEE34FFFC7F02120488AC70
:10042F002CAD2DCFCDCFCECCCE1201CBEF5401249E
:08043F0030FF12054E1A80CDBA
:010447002292
:0B05ED007BFF7A0579CD7D010204F749
:02044800AD07FE
:10044A00E4FBEBC394087480948050237E0074808C
:10045A00A803088006CEA2E713CE13D8F8FFEDF55D
:10046A0082EF558224FF92B4D2B6C2B60B80D3D2A1
:03047A00B5C2B553
:01047D00225C
:1004D300AE05AC07AF06120448AF04A80774800842
:1004E3008002C313D8FCF4F5807F017E00120591CE
:0404F3007580FF22EF
:05061200C2B6C2B522D2
:10000300E4F5377590FFC2932097137F14FE120512
:10001300913097FD7F147E0012059175370120966C
:10002300147F147E001205913096FD7F147E00121A
:1000330005917537052095147F147E0012059130C4
:1000430095FD7F147E001205917537092094147F66
:10005300147E001205913094FD7F147E00120591E9
:1000630075370D7590FFC2922097147F147E00128E
:1000730005913097FD7F147E00120591753702209C
:1000830096147F147E001205913096FD7F147E0036
:100093001205917537062095147F147E0012059181
:1000A3003095FD7F147E0012059175370A20941454
:1000B3007F147E001205913094FD7F147E0012059B
:1000C3009175370E7590FFC2912097147F147E00AF
:1000D3001205913097FD7F147E0012059175370349
:1000E3002096147F147E001205913096FD7F147EB6
:1000F300001205917537072095147F147E001205B1
:10010300913095FD7F147E0012059175370B209475
:10011300147F147E001205913094FD7F147E00122B
:10012300059175370F7590FFC2902097147F147E49
:10013300001205913097FD7F147E001205917537EB
:10014300042096147F147E001205913096FD7F14CF
:100153007E001205917537082095147F147E0012D6
:1001630005913095FD7F147E0012059175370C20A3
:1001730094147F147E001205913094FD7F147E0049
:08018300120591753710AF372A
:01018B002251
:10031500E4F53820B1137F14FE12059130B1FD7F4D
:10032500147E0012059175380120B0147F147E00EB
:1003350012059130B0FD7F147E00120591753802CB
:1003450020B2147F147E0012059130B2FD7F147E19
:100355000012059175380320B3147F147E00120531
:100365009130B3FD7F147E00120591753804AF38C6
:010375002265
:05060C00007FE3DFFEAA
:0106110022C6
:04057600AD07AC061B
:10057A00E4FBFAC3EB9DEA9C500CB2A512060C0BE5
:06058A00BB00010A80ED38
:010590002248
:03000000020220D9
:0C022000787FE4F6D8FD75813802026793
:10018C00BB010CE58229F582E5833AF583E0225028
:10019C0006E92582F8E622BBFE06E92582F8E22272
:0D01AC00E58229F582E5833AF583E493228C
:1001B900EF8DF0A4A8F0CF8CF0A428CE8DF0A42E5A
:0201C900FE2214
:1001CB00BC000BBE0029EF8DF084FFADF022E4CC18
:1001DB00F875F008EF2FFFEE33FEEC33FCEE9DECE1
:1001EB00984005FCEE9DFE0FD5F0E9E4CEFD22ED27
:1001FB00F8F5F0EE8420D21CFEADF075F008EF2F71
:10020B00FFED33FD4007985006D5F0F222C398FD61
:05021B000FD5F0EA22FE
:10022C0002051AE493A3F8E493A34003F68001F2C9
:10023C0008DFF48029E493A3F85407240CC8C333D3
:10024C00C4540F4420C8834004F456800146F6DFA2
:10025C00E4800B01020408102040809005B9E47E74
:10026C00019360BCA3FF543F30E509541FFEE49397
:10027C00A360010ECF54C025E060A840B8E493A35E
:10028C00FAE493A3F8E493A3C8C582C8CAC583CA89
:10029C00F0A3C8C582C8CAC583CADFE9DEE780BE41
:0105CC00002E
:00000001FF
