:1000030053877F75985053890F438920758BFA75F1
:0B0013008DFAC2ABD28ED2AFD2AC226D
:05001E0012000380FE4A
:03002300020026B2
:10002600C0E0C0F0C083C082C0D075D000C000C0A0
:1000360001C002C003C004C005C006C00730980C4A
:10004600E599F4F5A0AF99120090C298D007D006B2
:10005600D005D004D003D002D001D000D0D0D082B9
:07006600D083D0F0D0E0329E
:10006D0053877F75984053890F438920758BFA7597
:07007D008DFAC2ABD28E2206
:080090008F993099FDC29922FD
:0300000002008477
:0C008400787FE4F6D8FD75810702001EAD
:00000001FF
