:0D0E9900120D737FCC120D2F7F44020D2F20
:100B6100120D737FCC120D2F7FBE120D2F120C7838
:100B71008F2B120C78EFFEE52BFFFDAC06EC120279
:100B810043E4FBFA798078411201178F2F8E2E8D65
:030B91002D8C2C7C
:010B9400223E
:10067200E4F5577590FFC2932097137F14FE120E74
:10068200513097FD7F147E00120E5175570120964E
:10069200147F147E00120E513096FD7F147E0012DC
:1006A2000E517557052095147F147E00120E51309D
:1006B20095FD7F147E00120E517557092094147F08
:1006C200147E00120E513094FD7F147E00120E51E2
:1006D20075570D7590FFC2922097147F147E0012F9
:1006E2000E513097FD7F147E00120E517557022075
:1006F20096147F147E00120E513096FD7F147E00F8
:10070200120E517557062095147F147E00120E5159
:100712003095FD7F147E00120E5175570A209414F5
:100722007F147E00120E513094FD7F147E00120E53
:100732005175570E7590FFC2912097147F147E0059
:10074200120E513097FD7F147E00120E5175570321
:100752002096147F147E00120E513096FD7F147E77
:1007620000120E517557072095147F147E00120E49
:10077200513095FD7F147E00120E5175570B209457
:10078200147F147E00120E513094FD7F147E0012ED
:100792000E5175570F7590FFC2902097147F147EEB
:1007A20000120E513097FD7F147E00120E517557C4
:1007B200042096147F147E00120E513096FD7F1491
:1007C2007E00120E517557082095147F147E001278
:1007D2000E513095FD7F147E00120E5175570C207C
:1007E20094147F147E00120E513094FD7F147E000B
:0807F200120E51755710AF57AC
:0107FA0022DC
:050EEB00AF56E4F556CE
:010EF00022DF
:100E3B00E4FF20B1010F20B0027F0220B2027F033A
:050E4B0020B3027F044A
:010E5000227F
:100AAB00855455120E3B8F54AF557E00EF64017089
:100ABB0008E554700475560122EF64024E7008E588
:100ACB0054700475560222E55564037008E55470A2
:100ADB000475560322E55564047007E554700375DD
:020AEB005604AF
:010AED0022E6
:100D7300C2AFD2B7C2B7007FE3DFFED2B7007F1D99
:100D8300DFFEA2B7E433FE007FE3DFFED2AFAF06A0
:010D9300223D
:100E0C00C2AFC2B7007E03DEFEEF24FF92B7007EB6
:070E1C0014DEFED2B7D2AFD5
:010E230022AC
:020D2F00AD070E
:100D3100E4FCECC39408748094805013A8047401FB
:0F0D4100088002C333D8FC5DFF120E0C0C80E358
:010D50002280
:100D9400C2AFC2B7007F01DFFED2B7007F01DFFE22
:0E0DA400A2B7E433FE007F14DFFED2AFAF062D
:010DB200221E
:100C7800E4FDFCECC39408748094805016120D9423
:100C8800EF600DA8047401088002C333D8FC420544
:050C98000C80E0AF0537
:010C9D002234
:100E5100EF4E600F7D027CEFDCFEDDFCEF1F70F0DA
:030E61001E80ED03
:010E6400226B
:100D5100543A20202020202020200054483A0054DA
:100D61004C3A00486F742000436F6C6400202020CF
:020D7100200060
:1004BC00120E997FE87E03120E51120E24120E6555
:1004CC007BFF7A0D79517D017F01120D0C7BFF7A38
:1004DC000D795C7D017F02120D0C7BFF7A0D79602A
:1004EC007D097F02120D0CE4FF120BF88F487F017F
:1004FC00120BF88F49AF48EF3395E0FEC3EF947DB4
:10050C00EE64809480501FAF49EF3395E0FEC3EF4B
:10051C0094C9EE6480947F400DD3E5496480F8E57E
:10052C00486480985006754819754912120EEB8F65
:10053C0047120E99120B618F468E458D448C438F5A
:10054C00308E2F8D2E8C2D7531027532047D037FEC
:10055C00011207FBE548FB3395E0FA752F037D0488
:10056C007F02120A61E549FB3395E0FA752F037D92
:10057C000C7F02120A61AF47EF3395E0FEEF640186
:10058C004E701E0548AF48EF3395E0FEC3EF947DE7
:10059C00EE64809480400375487DAD48E4FF120CF6
:1005AC004FAF47EF3395E0FEEF64024E70181548DD
:1005BC00D3E5496480F8E54864809850020548AD5D
:1005CC0048E4FF120C4FAF47EF3395E0FEEF6403A6
:1005DC004E70180549D3E5496480F8E54864809865
:1005EC0050021549AD497F01120C4FAF47EF3395BF
:1005FC00E0FEEF64044E701E1549AF49EF3395E0F1
:10060C00FED3EF94C9EE6480947F50037549C9AD55
:10061C00497F01120C4FAC48EC120248AB46AA457C
:10062C00A944A8431201B4600A40087BFF7A0D79F3
:10063C00648019AC49EC120248AB46AA45A944A8FF
:10064C00431201B450107BFF7A0D79697D0C7F0148
:10065C00120D0C0205387BFF7A0D796E7D0C7F0133
:06066C00120D0C0205381E
:03000B000209BE29
:1009BE00C0E0C0F0C083C082C0D075D000C000C0FF
:0D09CE0001C002C003C004C005C006C00780
:1009DB00758A66758CFC0542E54270020541C3942D
:1009EB0014E54194004009120AAB754100754200B1
:1009FB00D007D006D005D004D003D002D001D00050
:0B0A0B00D0D0D082D083D0F0D0E032F9
:100E79002020202020202020202020202020202069
:010E89000068
:100C2500090910101010101010101019123F065B52
:100C35004F666D7D077F6F777C395E797100201077
:090C4500010204400880010801CD
:0700030074092FF8A6052285
:10095800E4F580EF14B40800505490097075F00362
:10096800A4C58325F0C5837302098802098C02098E
:10097800900209940209980209A00209A80209B084
:10098800D2A4800ED2A48012D2A48016D2A4801A37
:10099800C2A4D2A3D2A28016C2A4D2A3C2A2800E9D
:1009A800C2A4C2A3D2A28006C2A4C2A3C2A27412C5
:0609B8002DF8E6F5802297
:100DEF0074092508F8E6FDAF081209580508D3E580
:0C0DFF000894087480948040037508017B
:010E0B0022C4
:060E8A00C2A58F80D2A773
:080E90007F027EEFDEFEDFFCB5
:010E98002237
:0A0EBD00C2A6120E8AC2A7020E9010
:100DB300CFCDCFCECCCE12033C7C007D0A12033CB8
:040DC300ED2430FFEC
:0A0DC700D2A6120E8AC2A7020E90F7
:100DD100AE07EEFB7A0064017004ED148009EB6448
:0E0DE100024A7009ED243F4480FF120EBD222D
:100E65007F38120EBD7F0C120EBD7F06120EBD7FA0
:040E750001020EBDAB
:0A0EC700AC03120DD1AF04020DC7F9
:060D0C008B2B8A2C892DBF
:100D1200120DD1E4FDAB2BAA2CA92D8D8275830077
:0C0D22001202FDFF6006120DC70D80E9F3
:010D2E0022A2
:0A0BC700EF24FFFDEE34FFFC7F0A6F
:080BD1008E3D8F3E8C3F8D40EC
:100BD9007F017E00E4FBEBC39540E53F6480F87438
:0E0BE9008098500AAC3DAD3E12032A0B80E806
:010BF70022DB
:040CC4008A3A8B3BA2
:100CC800120DD1AA3CEAFF7E00D394007480948070
:0F0CD800400D120BC7AC3AAD3B120DB31A80E6BC
:010CE70022EA
:040A61008B828A8377
:100A6500120DD1C3E58364809480400D7F2B120D58
:100A7500C785833085823180107F2D120DC7C3E471
:100A85009582F531E49583F530AA2FEAFF7E00D3F0
:100A9500940074809480400D120BC7AC30AD3112B8
:050AA5000DB31A80E60C
:010AAA002229
:040A16008A4C8B4D2E
:100A1A00120DD1AA4EEAD39400748094804037EA2A
:100A2A0024FFFDE434FFFC7F107E00120BD1AC4C96
:100A3A00AD4DCFCDCFCECCCE12033CEF540FFEC37B
:100A4A00940A74809480EE5004243080022437FF84
:060A5A00120DC71A80BF57
:010A60002273
:0407FB008F2B8D2C87
:1007FF00E4753701F536F535F534FFFEFDFCAB300A
:10080F00AA2FA92EA82D1201B4501E7B2DAD2CAFEF
:10081F002B120EC7AF30AE2FAD2EAC2D12022D8F77
:10082F00308E2F8D2E8C2D80097B2BAD2CAF2B1264
:10083F000EC7E52C04FDC005AF30AE2FAD2EAC2D8D
:10084F0012027CAB07AA0685313CD005AF2B120CE8
:10085F00C4E52C042531FD7B2EAF2B120EC7E4F51A
:10086F0033E533C39532501DAF37AE36AD35AC34AB
:10087F00E47B0AFAF9F81203918F378E368D358C97
:10088F0034053380DCE52C25312402FDC005AF375C
:10089F00AE36AD35AC34E412023EAB30AA2FA92EE2
:1008AF00A82D12000E12027CAB37AA36A935A83438
:0D08BF0012041C85323CD005AF2B020CC486
:040AEE008A518B524C
:100AF200120DD1AA53EAFF7E00D394007480948031
:100B02004026EF24FFFDEE34FFFC7F02120BD1AC36
:100B120051AD52CFCDCFCECCCE12033CEF540124F7
:080B220030FF120DC71A80CD4F
:010B2A0022A8
:0B0EB2007BFF7A0E79797D01020D0CA8
:020B2B00AD0714
:100B2D00E4FBEBC394087480948050237E007480A2
:100B3D00A803088006CEA2E713CE13D8F8FFEDF573
:100B4D0082EF558224FF92B4D2B6C2B60B80D3D2B7
:030B5D00B5C2B569
:010B60002272
:100CE800AE05AC07AF06120B2BAF04A8077480083B
:100CF8008002C313D8FCF4F5807F017E00120E51E8
:040D08007580FF22D1
:050EF100C2B6C2B522EB
:100E24005389F0438901758A66758CFCC28DD28C16
:070E3400D2A9D2AFC2B9221E
:100C4F008F2B8D2C120EDB7FA0120B95120EA6AFE1
:100C5F002B120B95120EA6AF2C120B95120EA6127D
:090C6F000EE47F057E00020E5127
:020BF8008F2B41
:100BFA00120EDB7FA0120B95120EA6AF2B120B95CD
:100C0A00120EA6120EDB7FA1120B95120EA6120C63
:0A0C1A009E8F2C7F01120ED1AF2C2B
:010C240022AD
:090EDB00D2A0D2A1C2A0C2A12242
:070EE400C2A0D2A1D2A0229E
:020B9500AD07AA
:100B9700E4FBEBC394087480948050237E00748038
:100BA700A803088006CEA2E713CE13D8F8FFEDF509
:0F0BB70082EF558224FF92A0D2A1C2A10B80D35E
:010BC600220C
:100C9E00D2A0E4FEEEC39408748094805017D2A1C3
:100CAE0030A00DA8067480088002C313D8FC42073A
:050CBE00C2A10E80DF61
:010CC300220E
:0A0ED100EF24FF92A0D2A1C2A122DB
:0B0EA600D2A0D2A1A2A0E433FFC2A1A1
:010EB100221E
:10000E00EC4D6011E8497017ED33EC3304600DE4EC
:10001E00FCFFFEFD22E933E8330470F80202E81219
:10002E0002B358046009E4CC24815006285009021A
:10003E0002F22840030202EFC0E0EB4A7044B9809E
:10004E0006D0E0FB0202DEEF4E701CBD8008EBFF17
:10005E00EAFEE9FD80EBE98DF0A4FEE5F00200F783
:10006E00E9CDF9EAFEEBFFEF89F0A4FCE5F0CE89CD
:10007E00F0A42EFFE435F0CD89F0A42DFEE435F08A
:10008E008067EF4E7005BD80D780C3EF8BF0A4ACB8
:10009E00F0EE8BF0A42CFCE435F0F8EF8AF0A42CF3
:1000AE00E5F038FCE433CB8DF0A42CFCE5F03BF806
:1000BE00EE8AF0A42CFCE5F038F8E433CF89F0A4F6
:1000CE002CFCE5F038CF3400CE89F0A42FFFE5F0FC
:1000DE003EFEE433C98DF0A42EFEE5F039CD8AF054
:1000EE00A42FFFE5F03EFEE43DFD33D0E0FB5007CC
:1000FE000BBB000F0202F2EC2CFCEF33FFEE33FED3
:06010E00ED33FD0202CA00
:100114000202F2EC5D046005E8590470030202E88F
:100124001202B3580460F6EC4860F2EC7004FDFE71
:10013400FF22C860DB2481C85009C39860025006BE
:100144000202EF9850CAF582E9294B4A7005AB8246
:100154000202DE75F0007C1A7880C3EF9BEE9AED04
:1001640099400DC3EF9BFFEE9AFEED99FDE842F036
:10017400DC23ACF0D0E0FFD0E0FED0E0FDAB822089
:10018400E7101BEB60BAEC2CFCEF33FFEE33FEED13
:1001940033FD0202CAE803F830E705C0F075F00049
:1001A400EF2FFFEE33FEED33FD40B830E7C280AAF7
:1001B40074F8CC6480CCC86480C8F58204604FC3F2
:1001C400EB9FF5F0EA9E42F0E99D42F0E89C45F091
:1001D400603C501DE5825FFFE582D313CB5BCBF41B
:1001E4002B5582FB50280ABA002409B90020088044
:1001F4001DE5825BFBE582D313CF5FCFF4C3132FDE
:100204005582FF50090EBE00050DBD00010CC3EB65
:100214009FF5F0EA9E42F0E99D42F0E89C45F060CB
:0902240007CC4820E701B3EC22ED
:10022D00ED33EC33600A047003BD8004ECB2E7FCDF
:01023D00229E
:10023E0075F020800E75F010800575F0087D007E3B
:10024E00007F003392D530D5031204AEEC3340104C
:10025E00EF33FFEE33FEED33FDEC33FCD5F0ED2244
:0E026E00E5F0247EA2D513CC92E7CDCEFF2280
:10027C00EDD2E7CD33EC3392D524814006E4FFFE7A
:10028C00FDFC22FCE4CFCECDCC24E0501174FF80D9
:10029C00EDC3CC13CCCD13CDCE13CECF13CF047076
:0702AC00F030D5DE0204AEC4
:1002B300E9D2E7C933E833F892D5EDD2E7CD33EC91
:0702C30033FC5002B2D5220A
:1002CA00EC30E7100FBF000C0EBE00080DBD000495
:1002DA000BEB6014A2D5EB13FCED92E7FD2274FF41
:1002EA00FCFDFEFF22E480F8A2D574FF13FC7D809A
:0302FA00E480EFAE
:030000000208CC27
:0C08CC00787FE4F6D8FD7581570209130F
:1002FD00BB010CE58229F582E5833AF583E02250B6
:10030D0006E92582F8E622BBFE06E92582F8E222FF
:0D031D00E58229F582E5833AF583E4932219
:10032A00EF8DF0A4A8F0CF8CF0A428CE8DF0A42EE7
:02033A00FE22A1
:10033C00BC000BBE0029EF8DF084FFADF022E4CCA5
:10034C00F875F008EF2FFFEE33FEEC33FCEE9DEC6E
:10035C00984005FCEE9DFE0FD5F0E9E4CEFD22EDB4
:10036C00F8F5F0EE8420D21CFEADF075F008EF2FFE
:10037C00FFED33FD4007985006D5F0F222C398FDEF
:05038C000FD5F0EA228C
:10039100E88FF0A4CC8BF0A42CFCE98EF0A42CFC0B
:1003A1008AF0EDA42CFCEA8EF0A4CDA8F08BF0A489
:1003B1002DCC3825F0FDE98FF0A42CCD35F0FCEBE8
:1003C1008EF0A4FEA9F0EB8FF0A4CFC5F02ECD39AD
:0F03D100FEE43CFCEAA42DCE35F0FDE43CFC221A
:1003E00075F008758200EF2FFFEE33FECD33CDCCD4
:1003F00033CCC58233C5829BED9AEC99E582984057
:100400000CF582EE9BFEED9AFDEC99FC0FD5F0D633
:10041000E4CEFBE4CDFAE4CCF9A88222B800C1B95D
:100420000059BA002DEC8BF084CFCECDFCE5F0CB9B
:10043000F97818EF2FFFEE33FEED33FDEC33FCEBD4
:1004400033FB10D703994004EB99FB0FD8E5E4F98F
:10045000FA227818EF2FFFEE33FEED33FDEC33FC7C
:10046000C933C910D7059BE99A4007EC9BFCE99A70
:10047000F90FD8E0E4C9FAE4CCFB2275F010EF2FB5
:10048000FFEE33FEED33FDCC33CCC833C810D707B5
:100490009BEC9AE899400AED9BFDEC9AFCE899F8F0
:0E04A0000FD5F0DAE4CDFBE4CCFAE4C8F92283
:0E04AE00C3E49FFFE49EFEE49DFDE49CFC225F
:1008D8000204BCE493A3F8E493A34003F68001F276
:1008E80008DFF48029E493A3F85407240CC8C33321
:1008F800C4540F4420C8834004F456800146F6DFF0
:10090800E4800B0102040810204080900C25E47E4E
:10091800019360BCA3FF543F30E509541FFEE493E4
:10092800A360010ECF54C025E060A840B8E493A3AB
:10093800FAE493A3F8E493A3C8C582C8CAC583CAD6
:10094800F0A3C8C582C8CAC583CADFE9DEE780BE8E
:010C4E0000A5
:00000001FF
