:10080F0020202020202020202020202020202020D9
:01081F0000D8
:1005E400090910101010101010101019123F065B9A
:1005F4004F666D7D077F6F777C395E7971002010BF
:0906040001020440088001080114
:0700030074092FF8A6052285
:1003FA00E4F580EF14B40800505490041275F00329
:10040A00A4C58325F0C5837302042A02042E0204BC
:10041A003202043602043A02044202044A02045234
:10042A00D2A4800ED2A48012D2A48016D2A4801A9A
:10043A00C2A4D2A3D2A28016C2A4D2A3C2A2800E00
:10044A00C2A4C2A3D2A28006C2A4C2A3C2A2741228
:06045A002DF8E6F58022FA
:10079D0074092508F8E6FDAF081203FA0508D3E53C
:0C07AD00089408748094804003750801D3
:0107B900221D
:06082000C2A58F80D2A7E3
:080826007F027EEFDEFEDFFC25
:01082E0022A7
:0A084600C2A6120820C2A70208266D
:10076100CFCDCFCECCCE12028D7C007D0A12028D70
:04077100ED2430FF44
:0A077500D2A6120820C2A70208262F
:10077F00AE07EEFB7A0064017004ED148009EB64A0
:0E078F00024A7009ED243F4480FF1208462202
:1007E7007F381208467F0C1208467F061208467F9C
:0407F70001020846AD
:0A085000AC0312077FAF0402077526
:06073E008B508A51895224
:1007440012077FE4FDAB50AA51A9528D8275830034
:0C07540012024EFF60061207750D80E9CE
:010760002276
:0A064900EF24FFFDEE34FFFC7F0AF2
:080653008E4C8F4D8C4E8D4F33
:10065B007F017E00E4FBEBC3954FE54E6480F8749D
:0E066B008098500AAC4CAD4D12027B0B80E81B
:01067900225E
:0406F6008A3F8B406C
:1006FA0012077FAA41EAFF7E00D394007480948097
:0F070A00400D120649AC3FAD401207611A80E660
:0107190022BD
:0404AB008B828A8333
:1004AF0012077FC3E58364809480400D7F2B120772
:1004BF007585833B85823C80107F2D120775C3E4C1
:1004CF009582F53CE49583F53BAA3AEAFF7E00D38B
:1004DF00940074809480400D120649AC3BAD3C12E1
:0504EF0007611A80E620
:0104F40022E5
:040460008A448B45FA
:1004640012077FAA46EAD39400748094804037EA46
:1004740024FFFDE434FFFC7F107E00120653AC44DD
:10048400AD45CFCDCFCECCCE12028DEF540FFEC3EF
:10049400940A74809480EE5004243080022437FF40
:0604A4001207751A80BF6B
:0104AA00222F
:040538008A498B4A17
:10053C0012077FAA4BEAFF7E00D39400748094804C
:10054C004026EF24FFFDEE34FFFC7F02120653AC75
:10055C0049AD4ACFCDCFCECCCE12028DEF54012473
:08056C0030FF1207751A80CD63
:010574002264
:0B083B007BFF7A08790F7D0102073E69
:0205AE00AD0797
:1005B000E4FBEBC394087480948050237E00748025
:1005C000A803088006CEA2E713CE13D8F8FFEDF5F6
:1005D00082EF558224FF92B4D2B6C2B60B80D3D23A
:0305E000B5C2B5EC
:0105E30022F5
:10071A00AE05AC07AF061205AEAF04A80774800891
:10072A008002C313D8FCF4F5807F017E001207FB18
:04073A007580FF22A5
:05087A00C2B6C2B52268
:10000E00E4F5587590FFC2932097137F14FE1207E4
:10001E00FB3097FD7F147E001207FB75580120966A
:10002E00147F147E001207FB3096FD7F147E0012A3
:10003E0007FB7558052095147F147E001207FB30C0
:10004E0095FD7F147E001207FB7558092094147FCE
:10005E00147E001207FB3094FD7F147E001207FB06
:10006E0075580D7590FFC2922097147F147E001262
:10007E0007FB3097FD7F147E001207FB7558022098
:10008E0096147F147E001207FB3096FD7F147E00BF
:10009E001207FB7558062095147F147E001207FB7D
:1000AE003095FD7F147E001207FB75580A209414BC
:1000BE007F147E001207FB3094FD7F147E00120722
:1000CE00FB75580E7590FFC2912097147F147E0019
:1000DE001207FB3097FD7F147E001207FB75580345
:1000EE002096147F147E001207FB3096FD7F147E3F
:1000FE00001207FB7558072095147F147E00120717
:10010E00FB3095FD7F147E001207FB75580B209473
:10011E00147F147E001207FB3094FD7F147E0012B4
:10012E0007FB75580F7590FFC2902097147F147EB1
:10013E00001207FB3097FD7F147E001207FB7558E7
:10014E00042096147F147E001207FB3096FD7F1458
:10015E007E001207FB7558082095147F147E00123E
:10016E0007FB3095FD7F147E001207FB75580C209F
:10017E0094147F147E001207FB3094FD7F147E00D2
:08018E001207FB755810AF5871
:010196002246
:05087400AF55E4F5554D
:01087900225C
:1007D100E4FF20B1010F20B0027F0220B2027F03AB
:0507E10020B3027F04BB
:0107E60022F0
:1004F5008553541207D18F53AF547E00EF640170BA
:1005050008E553700475550122EF64024E7008E545
:1005150053700475550222E55464037008E5537061
:100525000475550322E55464047007E5537003759B
:0205350055046B
:0105370022A1
:09060D000133000132000131004B
:100197001207BA1208748F347E00EF6401700CE501
:1001A7003570047D0180027D008D35EF64024E704D
:1001B70006F533F532F531E53464037014AD33FFDA
:1001C7001206A7AD327F011206A7AD317F021206D4
:1001D700A7E53464047014FF12067A8F337F011287
:1001E700067A8F327F0212067A8F31E53375F00A6D
:1001F70084FD7F01120003E53375F00A84ADF07FBB
:10020700021200037D167F03120003E53275F00A20
:1002170084FD7F04120003E53275F00A84ADF07F98
:10022700051200037D167F06120003E53175F00AFB
:1002370084FD7F07120003E53175F00A84ADF07F76
:070247000812000302019AF6
:10057500E53560340531C3E5319464748094804079
:10058500050532E4F531C3E532943C74809480402E
:10059500050533E4F532C3E53394647480948040F3
:0905A50007E4F533F532F53122CB
:03000B000202E20C
:1002E200C0E0C0F0C083C082C0D075D000C000C0E2
:0D02F20001C002C003C004C005C006C00763
:1002FF00758A66758CFC052CE52C7002052BC39452
:10030F0014E52B940040091204F5752B00752C0091
:10031F00052EE52E7002052DC39402E52D940040A5
:10032F000912079D752D00752E000530E5307002FE
:10033F00052FC3940AE52F94004009120575752FF8
:04034F000075300005
:10035300D007D006D005D004D003D002D001D000FE
:0B036300D0D0D082D083D0F0D0E032A8
:1007FB00EF4E600F7D027CEFDCFEDDFCEF1F70F037
:03080B001E80ED5F
:01080E0022C7
:1007BA005389F0438901758A66758CFCC28DD28C87
:0707CA00D2A9D2AFC2B9228F
:1006A7008F568D571208647FA012061712082FAFB6
:1006B7005612061712082FAF5712061712082F12D5
:0906C700086D7F057E000207FBAF
:02067A008F5699
:10067C001208647FA012061712082FAF5612061725
:10068C0012082F1208647FA112061712082F1206E7
:0A069C00D08F577F0112085AAF57A4
:0106A6002231
:09086400D2A0D2A1C2A0C2A122BF
:07086D00C2A0D2A1D2A0221B
:02061700AD072D
:10061900E4FBEBC394087480948050237E007480BB
:10062900A803088006CEA2E713CE13D8F8FFEDF58C
:0F06390082EF558224FF92A0D2A1C2A10B80D3E1
:01064800228F
:1006D000D2A0E4FEEEC39408748094805017D2A197
:1006E00030A00DA8067480088002C313D8FC42070E
:0506F000C2A10E80DF35
:0106F50022E2
:0A085A00EF24FF92A0D2A1C2A12258
:0B082F00D2A0D2A1A2A0E433FFC2A11E
:01083A00229B
:0300000002036E8A
:0C036E00787FE4F6D8FD7581580203B5D5
:10024E00BB010CE58229F582E5833AF583E0225065
:10025E0006E92582F8E622BBFE06E92582F8E222AF
:0D026E00E58229F582E5833AF583E49322C9
:10027B00EF8DF0A4A8F0CF8CF0A428CE8DF0A42E97
:02028B00FE2251
:10028D00BC000BBE0029EF8DF084FFADF022E4CC55
:10029D00F875F008EF2FFFEE33FEEC33FCEE9DEC1E
:1002AD00984005FCEE9DFE0FD5F0E9E4CEFD22ED64
:1002BD00F8F5F0EE8420D21CFEADF075F008EF2FAE
:1002CD00FFED33FD4007985006D5F0F222C398FD9F
:0502DD000FD5F0EA223C
:10037A00020197E493A3F8E493A34003F68001F201
:10038A0008DFF48029E493A3F85407240CC8C33384
:10039A00C4540F4420C8834004F456800146F6DF53
:1003AA00E4800B01020408102040809005E4E47EFA
:1003BA00019360BCA3FF543F30E509541FFEE49348
:1003CA00A360010ECF54C025E060A840B8E493A30F
:1003DA00FAE493A3F8E493A3C8C582C8CAC583CA3A
:1003EA00F0A3C8C582C8CAC583CADFE9DEE780BEF2
:0106160000E3
:00000001FF
