:07000300010A0002080000E1
:10015D0012018275A0FE1200FC8F0BE50B60F76497
:10016D00017005750A01F50BE50B640270E8750A5F
:05017D0002F50B80E11A
:03000B0002009A56
:10009A00C0E0C0D075D000C000C004C005C007755C
:1000AA008A66758CFC0509E50970020508C394F493
:1000BA00E5089401402FE50AFD7C006401700DAF4C
:1000CA00A07801EF08800123D8FDF5A0ED64024C69
:1000DA00700DAFA07801EF08800103D8FDF5A07577
:1000EA000800750900D007D005D004D000D0D0D0C0
:0200FA00E032F2
:100182005389F0438901758A66758CFCC28DD28CC5
:07019200D2A9D2AFC2B922CD
:1000FC00E4F50C20B1137F14FE12019930B1FD7F91
:10010C00147E00120199750C0120B0147F147E002E
:10011C0012019930B0FD7F147E00120199750C020A
:10012C0020B2147F147E0012019930B2FD7F147E30
:10013C0000120199750C0320B3147F147E00120178
:10014C009930B3FD7F147E00120199750C04AF0C2D
:01015C002280
:10019900EF4E600F7D027CEFDCFEDDFCEF1F70F09F
:0301A9001E80EDC8
:0101AC002230
:0300000002000EED
:0C000E00787FE4F6D8FD75810C020055E7
:10001A0002015DE493A3F8E493A34003F68001F29E
:10002A0008DFF48029E493A3F85407240CC8C333E7
:10003A00C4540F4420C8834004F456800146F6DFB6
:10004A00E4800B0102040810204080900003E47E43
:10005A00019360BCA3FF543F30E509541FFEE493AB
:10006A00A360010ECF54C025E060A840B8E493A372
:10007A00FAE493A3F8E493A3C8C582C8CAC583CA9D
:10008A00F0A3C8C582C8CAC583CADFE9DEE780BE55
:01000A0000F5
:00000001FF
