:0A04F000436C6F636B3A20003A0082
:1003DB00021D000002210000021F00000219000094
:0403EB00021B0000F1
:1001F70012049D1204867BFF7A0479F07D017F014A
:10020700120427752702AB20AA1F7D017F02120463
:10021700037BFF7A0479F87D037F02120427752791
:1002270002AB22AA217D047F021204037BFF7A041A
:1002370079F87D067F02120427752702AB1EAA1DD7
:100247007D077F021204037BFF7A0479F87D097F1B
:1002570002120427752702AB1AAA197D0A7F021218
:040267000403809F6D
:03000B0002000EE2
:10000E00C0E0C0F0C0D075D000C000C004C005C0B4
:10001E0006C007758A66758CFC051CE51C7002050A
:10002E001BC39464E51B940050030200C6751B00AD
:10003E00751C00051AE51A70020519940AE5199443
:10004E00004017AE19AF1A7C007D0A1201168C19EA
:10005E008D1A051EE51E7002051DC3E51E943CE5B6
:10006E001D94004017AE1DAF1E7C007D3C12011684
:10007E008C1D8D1E0522E52270020521C3E52294FA
:10008E003CE52194004017AE21AF227C007D3C124E
:10009E0001168C218D220520E5207002051FC3E577
:1000AE00209418E51F9400400FAE1FAF207C007DFA
:1000BE00181201168C1F8D20D007D006D005D00443
:0900CE00D000D0D0D0F0D0E03217
:1004C5002020202020202020202020202020202027
:0104D5000026
:1003EF0011083F065B4F666D7D077F6F777C395E27
:0303FF0079710011
:10026B00EF14B40800505490028075F003A4C583BA
:10027B0025F0C5837302029802029C0202A00202BF
:10028B00A40202A80202B00202B80202C0D2A480E9
:10029B000ED2A48012D2A48016D2A4801AC2A4D2E9
:1002AB00A3D2A28016C2A4D2A3C2A2800EC2A4C2A1
:1002BB00A3D2A28006C2A4C2A3C2A274082DF8E6E0
:0D02CB00F5807F017E001204B1E4F5802271
:0604D600C2A58F80D2A731
:0804DC007F027EEFDEFEDFFC73
:0104E40022F5
:0A04FA00C2A61204D6C2A70204DC59
:10044A00CFCDCFCECCCE1201167C007D0A1201167A
:04045A00ED2430FF5E
:0A045E00D2A61204D6C2A70204DCE5
:10046800AE07EEFB7A0064017004ED148009EB64BA
:0E047800024A7009ED243F4480FF1204FA226C
:10049D007F381204FA7F0C1204FA7F061204FA7FD9
:0404AD00010204FA4A
:0A050400AC03120468AF0402045EA9
:060427008B238A248925C5
:10042D00120468E4FDAB23AA24A9258D82758300EF
:0C043D001200D7FF600612045E0D80E97B
:010449002290
:0A03AA00EF24FFFDEE34FFFC7F0A94
:0803B4008E288F298C2A8D2B65
:1003BC007F017E00E4FBEBC3952BE52A6480F87487
:0E03CC008098500AAC28AD291201040B80E87D
:0103DA002200
:040403008A258B2695
:10040700120468AA27EAFF7E00D3940074809480C0
:0F041700400D1203AAAC25AD2612044A1A80E646
:0104260022B3
:040323008B828A83BC
:10032700120468C3E58364809480400D7F2B120418
:100337005E85833185823280107F2D12045EC3E48F
:100347009582F532E49583F531AA30EAFF7E00D332
:10035700940074809480400D1203AAAC31AD321220
:05036700044A1A80E6C3
:01036C00226E
:0402D8008A358B36A2
:1002DC00120468AA37EAD39400748094804037EAF9
:1002EC0024FFFDE434FFFC7F107E001203B4AC3518
:1002FC00AD36CFCDCFCECCCE120116EF540FFEC300
:10030C00940A74809480EE5004243080022437FFC9
:06031C0012045E1A80BF0E
:0103220022B8
:04036D008A3A8B3B02
:10037100120468AA3CEAFF7E00D394007480948042
:100381004026EF24FFFDEE34FFFC7F021203B4ACE4
:100391003AAD3BCFCDCFCECCCE120116EF540124D6
:0803A10030FF12045E1A80CD4A
:0103A9002231
:0B04E5007BFF7A0479C57D010204272B
:1004B100EF4E600F7D027CEFDCFEDDFCEF1F70F084
:0304C1001E80EDAD
:0104C4002215
:100486005389F0438901758A66758CFCC28DD28CBE
:07049600D2A9D2AFC2B922C6
:0300000002016B8F
:0C016B00787FE4F6D8FD75813C0201B2FB
:1000D700BB010CE58229F582E5833AF583E02250DE
:1000E70006E92582F8E622BBFE06E92582F8E22228
:0D00F700E58229F582E5833AF583E4932242
:10010400EF8DF0A4A8F0CF8CF0A428CE8DF0A42E0F
:02011400FE22C9
:10011600BC000BBE0029EF8DF084FFADF022E4CCCD
:10012600F875F008EF2FFFEE33FEEC33FCEE9DEC96
:10013600984005FCEE9DFE0FD5F0E9E4CEFD22EDDC
:10014600F8F5F0EE8420D21CFEADF075F008EF2F26
:10015600FFED33FD4007985006D5F0F222C398FD17
:050166000FD5F0EA22B4
:100177000201F7E493A3F8E493A34003F68001F2A6
:1001870008DFF48029E493A3F85407240CC8C33389
:10019700C4540F4420C8834004F456800146F6DF58
:1001A700E4800B01020408102040809003DBE47E0A
:1001B700019360BCA3FF543F30E509541FFEE4934D
:1001C700A360010ECF54C025E060A840B8E493A314
:1001D700FAE493A3F8E493A3C8C582C8CAC583CA3F
:1001E700F0A3C8C582C8CAC583CADFE9DEE780BEF7
:0104020000F9
:00000001FF
