:100225001204287D70E4FF12032A7DF87F01120372
:100235002A7DFC7F0212032A7D7E7F0312032A7D1D
:100245007E7F0412032A7DFC7F0512032A7DF87F39
:0D0255000612032A7D707F0712032A80C65F
:1003AD00EF4E600F7D027CEFDCFEDDFCEF1F70F089
:0303BD001E80EDB2
:0103C000221A
:1003E9002020202020202020202020202020202004
:0103F9000003
:1003D50011083F065B4F666D7D077F6F777C395E41
:0303E5007971002B
:10012300EF14B40800505490013875F003A4C5834C
:1001330025F0C583730201500201540201580201E4
:100143005C020160020168020170020178D2A4809E
:100153000ED2A48012D2A48016D2A4801AC2A4D232
:10016300A3D2A28016C2A4D2A3C2A2800EC2A4C2EA
:10017300A3D2A28006C2A4C2A3C2A274082DF8E629
:0D018300F5807F017E001203ADE4F58022BF
:0603FA00C2A58F80D2A70E
:080400007F027EEFDEFEDFFC4F
:0104080022D1
:0A041400C2A61203FAC2A7020400F8
:10037100CFCDCFCECCCE1200427C007D0A120042FE
:04038100ED2430FF38
:0A038500D2A61203FAC2A702040078
:10038F00AE07EEFB7A0064017004ED148009EB6494
:0E039F00024A7009ED243F4480FF120414222C
:1003C1007F381204147F0C1204147F061204147F68
:0403D100010204140D
:0A041E00AC0312038FAF0402038544
:06034E008B338A3489356F
:1003540012038FE4FDAB33AA34A9358D8275830073
:0C036400120003FF60061203850D80E903
:01037000226A
:0A02D500EF24FFFDEE34FFFC7F0A6A
:0802DF008E2F8F308C318D321F
:1002E7007F017E00E4FBEBC39532E5316480F8744F
:0E02F7008098500AAC2FAD301200300B80E81A
:0103050022D5
:040306008A228B2399
:10030A0012038FAA24EAFF7E00D39400748094809B
:0F031A00400D1202D5AC22AD231203711A80E6FA
:0103290022B1
:0401DB008B828A8306
:1001DF0012038FC3E58364809480400D7F2B12033D
:1001EF008585831E85821F80107F2D120385C3E4B2
:1001FF009582F51FE49583F51EAA1DEAFF7E00D3B5
:10020F00940074809480400D1202D5AC1EAD1F1265
:05021F0003711A80E6E6
:0102240022B7
:040190008A278B2807
:1001940012038FAA29EAD39400748094804037EA2A
:1001A40024FFFDE434FFFC7F107E001202DFAC2745
:1001B400AD28CFCDCFCECCCE120042EF540FFEC32C
:1001C400940A74809480EE5004243080022437FF13
:0601D4001203851A80BF32
:0101DA002202
:040262008A2C8B2D2A
:1002660012038FAA2EEAFF7E00D394007480948036
:100276004026EF24FFFDEE34FFFC7F021202DFACC6
:100286002CAD2DCFCDCFCECCCE120042EF540124D3
:0802960030FF1203851A80CD30
:01029E00223D
:0B0409007BFF7A0379E97D0102034EBE
:02029F00AD07A9
:1002A100E4FBEBC394087480948050237E00748037
:1002B100A803088006CEA2E713CE13D8F8FFEDF508
:1002C10082EF558224FF92B4D2B6C2B60B80D3D24C
:0302D100B5C2B5FE
:0102D4002207
:10032A00AE05AC07AF0612029FAF04A80774800897
:10033A008002C313D8FCF4F5807F017E001203AD5E
:04034A007580FF2299
:05042800C2B6C2B522BE
:0300000002009764
:0C009700787FE4F6D8FD7581350200DEAC
:10000300BB010CE58229F582E5833AF583E02250B2
:1000130006E92582F8E622BBFE06E92582F8E222FC
:0D002300E58229F582E5833AF583E4932216
:10003000EF8DF0A4A8F0CF8CF0A428CE8DF0A42EE4
:02004000FE229E
:10004200BC000BBE0029EF8DF084FFADF022E4CCA2
:10005200F875F008EF2FFFEE33FEEC33FCEE9DEC6B
:10006200984005FCEE9DFE0FD5F0E9E4CEFD22EDB1
:10007200F8F5F0EE8420D21CFEADF075F008EF2FFB
:10008200FFED33FD4007985006D5F0F222C398FDEC
:050092000FD5F0EA2289
:1000A300020225E493A3F8E493A34003F68001F24C
:1000B30008DFF48029E493A3F85407240CC8C3335E
:1000C300C4540F4420C8834004F456800146F6DF2D
:1000D300E4800B01020408102040809003D5E47EE5
:1000E300019360BCA3FF543F30E509541FFEE49322
:1000F300A360010ECF54C025E060A840B8E493A3E9
:10010300FAE493A3F8E493A3C8C582C8CAC583CA13
:10011300F0A3C8C582C8CAC583CADFE9DEE780BECB
:0103E8000014
:00000001FF
