:0D04EA0041444A20204E5443202052470038
:0403B0000245000002
:1001A5001204A27BFF7A0479EA7D017F01120426FD
:1001B5007F9C1201238E458F46752F03AB46AA45BA
:1001C5007D017F021203DE7F0A7E001204B67FDC0A
:1001D5001201238E458F46752F03AB46AA457D0632
:1001E5007F021203DE7F0A7E001204B67FAC120185
:1001F500238E458F46752F03AB46AA457D0B7F029F
:0C0205001203DE7F0A7E001204B680A403
:1004CA002020202020202020202020202020202022
:0104DA000021
:1003B400090910101010101010101019123F065BCC
:1003C4004F666D7D077F6F777C395E7971002010F1
:0903D40001020440088001080147
:0705160074092FF8A605226D
:10021100E4F580EF14B40800505490022975F003FE
:10022100A4C58325F0C5837302024102024502027F
:100231004902024D0202510202590202610202699F
:10024100D2A4800ED2A48012D2A48016D2A4801A85
:10025100C2A4D2A3D2A28016C2A4D2A3C2A2800EEB
:10026100C2A4C2A3D2A28006C2A4C2A3C2A2741213
:060271002DF8E6F58022E5
:1004850074092508F8E6FDAF081202110508D3E541
:0C049500089408748094804003750801EE
:0104A1002238
:0604DB00C2A58F80D2A72C
:0804E1007F027EEFDEFEDFFC6E
:0104E90022F0
:0A050200C2A61204DBC2A70204E146
:10044900CFCDCFCECCCE1200427C007D0A12004225
:04045900ED2430FF5F
:0A045D00D2A61204DBC2A70204E1DC
:10046700AE07EEFB7A0064017004ED148009EB64BB
:0E047700024A7009ED243F4480FF1205022264
:1004A2007F381205027F0C1205027F061205027FB9
:0404B200010205023C
:0A050C00AC03120467AF0402045DA3
:060426008B2B8A2C892DAE
:10042C00120467E4FDAB2BAA2CA92D8D82758300D9
:0C043C00120003FF600612045D0D80E951
:010448002291
:0A037F00EF24FFFDEE34FFFC7F0ABF
:080389008E308F318C328D3370
:100391007F017E00E4FBEBC39533E5326480F874A2
:0E03A1008098500AAC30AD311200300B80E86D
:0103AF00222B
:0403DE008A2D8B2EAB
:1003E200120467AA2FEAFF7E00D3940074809480DF
:0F03F200400D12037FAC2DAD2E1204491A80E688
:0104010022D8
:0402C2008B828A831E
:1002C600120467C3E58364809480400D7F2B12047B
:1002D6005D85833985823A80107F2D12045DC3E4E3
:1002E6009582F53AE49583F539AA38EAFF7E00D37C
:1002F600940074809480400D12037FAC39AD3A129D
:0503060004491A80E625
:01030B0022CF
:040277008A3D8B3EF3
:10027B00120467AA3FEAD39400748094804037EA53
:10028B0024FFFDE434FFFC7F107E00120389AC3D9C
:10029B00AD3ECFCDCFCECCCE120042EF540FFEC32E
:1002AB00940A74809480EE5004243080022437FF2B
:0602BB0012045D1A80BF71
:0102C100221A
:04030C008A428B4353
:10031000120467AA44EAFF7E00D39400748094809C
:100320004026EF24FFFDEE34FFFC7F02120389AC70
:1003300042AD43CFCDCFCECCCE120042EF540124FC
:0803400030FF12045D1A80CDAC
:010348002292
:0B04F7007BFF7A0479CA7D0102042615
:02034900AD07FE
:10034B00E4FBEBC394087480948050237E0074808C
:10035B00A803088006CEA2E713CE13D8F8FFEDF55D
:10036B0082EF558224FF92B4D2B6C2B60B80D3D2A1
:03037B00B5C2B553
:01037E00225C
:10040200AE05AC07AF06120349AF04A80774800813
:100412008002C313D8FCF4F5807F017E001204B67B
:040422007580FF22C0
:05051D00C2B6C2B522C8
:1004B600EF4E600F7D027CEFDCFEDDFCEF1F70F07F
:0304C6001E80EDA8
:0104C9002210
:02012300AD0726
:10012500E4F52BF52CC2B6C2B5FBEBC3940874807D
:10013500948050237E007480A803088006CEA2E731
:1001450013CE13D8F8FFEDF582EF558224FF92B454
:10015500D2B6C2B60B80D3C2B4E4FBEBC394107421
:10016500809480501ED2B6C2B630B7147E80E4A803
:1001750003088005CEC313CE13D8F9422CEE422BCB
:100185000B80D8D2B5ED30E306E52BFF7E0022E5E6
:0F0195002BC4F854F0C868FEE52CC4540F48FF83
:0101A4002238
:0300000002009764
:0C009700787FE4F6D8FD7581460200DE9B
:10000300BB010CE58229F582E5833AF583E02250B2
:1000130006E92582F8E622BBFE06E92582F8E222FC
:0D002300E58229F582E5833AF583E4932216
:10003000EF8DF0A4A8F0CF8CF0A428CE8DF0A42EE4
:02004000FE229E
:10004200BC000BBE0029EF8DF084FFADF022E4CCA2
:10005200F875F008EF2FFFEE33FEEC33FCEE9DEC6B
:10006200984005FCEE9DFE0FD5F0E9E4CEFD22EDB1
:10007200F8F5F0EE8420D21CFEADF075F008EF2FFB
:10008200FFED33FD4007985006D5F0F222C398FDEC
:050092000FD5F0EA2289
:1000A3000201A5E493A3F8E493A34003F68001F2CD
:1000B30008DFF48029E493A3F85407240CC8C3335E
:1000C300C4540F4420C8834004F456800146F6DF2D
:1000D300E4800B01020408102040809003B0E47E0A
:1000E300019360BCA3FF543F30E509541FFEE49322
:1000F300A360010ECF54C025E060A840B8E493A3E9
:10010300FAE493A3F8E493A3C8C582C8CAC583CA13
:10011300F0A3C8C582C8CAC583CADFE9DEE780BECB
:0103DD00001F
:00000001FF
