:1006ED00414444522020434D4420204E554D00306E
:0E06FD003020202020303020202030303000EF
:1003FE0012077A12083D7BFF7A0679ED7D017F01A7
:10040E001206CA7BFF7A0679FC7D017F021206CAAC
:10041E001207D2EF70061207DFEF60F41208488F52
:10042E004B12084B8F4AE54BFB7A00753B027D0160
:10043E007F021204DCE54AFB7A00753B027D077FE2
:10044E00021204DCAF4A7E00EF641570021549EF0C
:10045E0064094E70020549E549FB7A00753B037D40
:08046E000C7F0212068280A837
:1007A2002020202020202020202020202020202047
:0107B2000046
:10065800090910101010101010101019123F065B25
:100668004F666D7D077F6F777C395E79710020104A
:09067800010204400880010801A0
:07082A0074092FF8A6052256
:10047600E4F580EF14B40800505490048E75F00330
:10048600A4C58325F0C583730204A60204AA020448
:10049600AE0204B20204B60204BE0204C60204CED0
:1004A600D2A4800ED2A48012D2A48016D2A4801A1E
:1004B600C2A4D2A3D2A28016C2A4D2A3C2A2800E84
:1004C600C2A4C2A3D2A28006C2A4C2A3C2A27412AC
:0604D6002DF8E6F580227E
:1007470074092508F8E6FDAF081204760508D3E515
:0C07570008940874809480400375080129
:010763002273
:0607C300C2A58F80D2A741
:0807C9007F027EEFDEFEDFFC83
:0107D1002205
:0A080D00C2A61207C3C2A70207C962
:10070B00CFCDCFCECCCE12031D7C007D0A12031DA4
:04071B00ED2430FF9A
:0A071F00D2A61207C3C2A70207C941
:10072900AE07EEFB7A0064017004ED148009EB64F6
:0E073900024A7009ED243F4480FF12080D2291
:10077A007F3812080D7F0C12080D7F0612080D7FB4
:04078A000102080D53
:0A081700AC03120729AF0402071F0B
:0606CA008B378A388939E4
:1006D000120729E4FDAB37AA38A9398D827583004A
:0C06E0001202DEFF600612071F0D80E909
:0106EC0022EB
:0A062700EF24FFFDEE34FFFC7F0A14
:080631008E3C8F3D8C3E8D3F95
:100639007F017E00E4FBEBC3953FE53E6480F874DF
:0E0649008098500AAC3CAD3D12030B0B80E8CC
:010657002280
:040682008A398B3AEC
:10068600120729AA3BEAFF7E00D394007480948067
:0F069600400D120627AC39AD3A12070B1A80E659
:0106A5002232
:040527008B828A83B6
:10052B00120729C3E58364809480400D7F2B12074B
:10053B001F85834585824680107F2D12071FC3E4DC
:10054B009582F546E49583F545AA44EAFF7E00D3F0
:10055B00940074809480400D120627AC45AD461272
:05056B00070B1A80E6F9
:010570002268
:0404DC008A398B3A94
:1004E000120729AA3BEAD39400748094804037EA2B
:1004F00024FFFDE434FFFC7F107E00120631AC398E
:10050000AD3ACFCDCFCECCCE12031DEF540FFEC3EC
:10051000940A74809480EE5004243080022437FFC3
:0605200012071F1A80BF44
:0105260022B2
:0405B4008A4E8B4F91
:1005B800120729AA50EAFF7E00D394007480948021
:1005C8004026EF24FFFDEE34FFFC7F02120631AC1B
:1005D8004EAD4FCFCDCFCECCCE12031DEF5401245C
:0805E80030FF12071F1A80CD3D
:0105F00022E8
:0B07EC007BFF7A0779A27D010206CA9C
:0205F100AD0754
:1005F300E4FBEBC394087480948050237E007480E2
:10060300A803088006CEA2E713CE13D8F8FFEDF5B2
:1006130082EF558224FF92B4D2B6C2B60B80D3D2F6
:03062300B5C2B5A8
:0106260022B1
:1006A600AE05AC07AF061205F1AF04A807748008C3
:1006B6008002C313D8FCF4F5807F017E0012078EFA
:0406C6007580FF221A
:05084300C2B6C2B5229F
:10000600E4F5547590FFC2932097137F14FE1207F0
:100016008E3097FD7F147E0012078E755401209650
:10002600147F147E0012078E3096FD7F147E001218
:10003600078E7554052095147F147E0012078E30A6
:1000460095FD7F147E0012078E7554092094147F47
:10005600147E0012078E3094FD7F147E0012078EE8
:1000660075540D7590FFC2922097147F147E00126E
:10007600078E3097FD7F147E0012078E755402207E
:1000860096147F147E0012078E3096FD7F147E0034
:1000960012078E7554062095147F147E0012078E63
:1000A6003095FD7F147E0012078E75540A20941435
:1000B6007F147E0012078E3094FD7F147E00120797
:1000C6008E75540E7590FFC2912097147F147E0092
:1000D60012078E3097FD7F147E0012078E7554032B
:1000E6002096147F147E0012078E3096FD7F147EB4
:1000F6000012078E7554072095147F147E00120790
:100106008E3095FD7F147E0012078E75540B209459
:10011600147F147E0012078E3094FD7F147E001229
:10012600078E75540F7590FFC2902097147F147E2A
:100136000012078E3097FD7F147E0012078E7554CD
:10014600042096147F147E0012078E3096FD7F14CD
:100156007E0012078E7554082095147F147E0012B7
:10016600078E3095FD7F147E0012078E75540C2085
:1001760094147F147E0012078E3094FD7F147E0047
:0801860012078E755410AF54EE
:01018E00224E
:05083100AF53E4F55394
:01083600229F
:10076400E4FF20B1010F20B0027F0220B2027F0318
:0507740020B3027F0428
:01077900225D
:100571008551521207648F51AF527E00EF640170B2
:1005810008E551700475530122EF64024E7008E5CD
:1005910051700475530222E55264037008E55170ED
:1005A1000475530322E55264047007E55170037525
:0205B1005304F1
:0105B3002225
:10078E00EF4E600F7D027CEFDCFEDDFCEF1F70F0A4
:03079E001E80EDCD
:0107A1002235
:0B07F700D288C289D2A8D2AFD2B822AB
:1007B3005389F0438901E4F58AF58CC28DC28C22FA
:0B080200AD07AC068C8CAF058F8A227E
:09082100AF8CEFFEAD8AEDFF2261
:06083700EF24FF928C2269
:06083D001207B30207F7E9
:0300030002018F68
:10018F00C0E0C0F0C083C082C0D075D000C000C036
:10019F0001C002C003C004C005C006C007E52B7034
:1001AF0010FFFE1208027F01120837752B010202A1
:1001BF00C3E52B640170461208218E2C8F2DE4FFAE
:1001CF00FE120802D3E52D94CCE52C942E4010E5B9
:1001DF002D94B4E52C94325006752B020202C3D332
:1001EF00E52D948CE52C94264010E52D9474E52C88
:1001FF00942A50067530010202BB0202C0E52B643F
:10020F000260030202C31208218E2C8F2DE4FFFE21
:10021F00120802D3E52D94DCE52C9402402BE52D3A
:10022F009434E52C94055021E531131313541F24F6
:10023F0033F8C000E6FFE5315407FEF8740108807B
:10024F0002C333D8FCF45F8033D3E52D94EEE52C55
:10025F009406402FE52D9446E52C94095025E53161
:10026F00131313541F2433F8C000E6FFE53154076E
:10027F00FEF87401088002C333D8FC4FD000F60596
:10028F00318006752B00753100C3E53194207480E1
:10029F0094804020753100E534F4B5330FE536F422
:1002AF00B5350975320185332F85352EE4FF1208D8
:1002BF0037752B00D007D006D005D004D003D0025D
:0F02CF00D001D000D0D0D082D083D0F0D0E03298
:0D07D200E5326006E4F5327F01227F00224F
:0D07DF00E5306006E4F5307F01227F002246
:03084800AF2F22AD
:03084B00AF2E22AB
:0300000002037286
:0C037200787FE4F6D8FD7581540203B9D1
:1002DE00BB010CE58229F582E5833AF583E02250D5
:1002EE0006E92582F8E622BBFE06E92582F8E2221F
:0D02FE00E58229F582E5833AF583E4932239
:10030B00EF8DF0A4A8F0CF8CF0A428CE8DF0A42E06
:02031B00FE22C0
:10031D00BC000BBE0029EF8DF084FFADF022E4CCC4
:10032D00F875F008EF2FFFEE33FEEC33FCEE9DEC8D
:10033D00984005FCEE9DFE0FD5F0E9E4CEFD22EDD3
:10034D00F8F5F0EE8420D21CFEADF075F008EF2F1D
:10035D00FFED33FD4007985006D5F0F222C398FD0E
:05036D000FD5F0EA22AB
:10037E000203FEE493A3F8E493A34003F68001F294
:10038E0008DFF48029E493A3F85407240CC8C33380
:10039E00C4540F4420C8834004F456800146F6DF4F
:1003AE00E4800B0102040810204080900658E47E81
:1003BE00019360BCA3FF543F30E509541FFEE49344
:1003CE00A360010ECF54C025E060A840B8E493A30B
:1003DE00FAE493A3F8E493A3C8C582C8CAC583CA36
:1003EE00F0A3C8C582C8CAC583CADFE9DEE780BEEE
:010681000078
:00000001FF
