:10000E0000000004000000040000000400000002D4
:10001E00000D0001000D0001000D0001000D00019A
:10002E00000D0001000D0001000D0002000D000189
:10003E00000A0003000D000200000003000D000185
:10004E00000800010008000100080001000800017E
:10005E00000F0002000C0001000D0003000800025A
:10006E00000000020008000100010001000D000167
:10007E00000D0002000D000100110002000D000134
:10008E00000D0003000A000200000002000A000238
:10009E00000800010008000100080001000800012E
:1000AE00000F0002000C0001000D0005000500020B
:1000BE000006000200080004000D0004000C0002FF
:1000CE00000C0002000A0002000A0001000A0003F0
:1000DE0000080002000300020006000100060003F3
:1000EE0000050002000000020001000400010002F1
:1000FE00000A0002000C0001000A000300080002C2
:10010E0000000002000500020006000200080002C6
:10011E00000A0002000C0001000A000300080002A1
:10012E000000000400080004000D0002000D000194
:10013E00000D0001000A0002000A00020000000289
:10014E00000A000200080002000F0002000F000269
:10015E00000C0001000D0001000D00020011000254
:10016E000000000200120004001200020011000242
:10017E00000D0002000D0002000A00020031000016
:10018E00000C0002000D0001000F0001000F00081E
:10019E0000000002000D0002000D0002000F000220
:1001AE0000110002001400020014000200140001ED
:1001BE00001400030012000200000002000D0002F5
:1001CE00000F0002000F00020012000200140001D6
:1001DE00001200030011000200000004000D0002D6
:1001EE00000D0002001100020012000100110003B8
:1001FE00000F0002000A0002000C0002000D0004B5
:10020E00001100020012000100110003000F000295
:10021E00000000020008000200110004003100007E
:10022E00001400020014000100140001001400026A
:10023E000012000200000002000D0002000F00027A
:10024E00000F000200120002001400010012000351
:10025E000011000200000002000D0002000D00025D
:10026E000016000200000002000D0002000C000447
:10027E00001100020011000100110003000D000228
:10028E0000000002000F0001000D00050000000438
:10029E000000000400000004000000040000000242
:1002AE00000D0001000D0001000D0001000D000108
:1002BE00000D0001000D0001000D0002000D0001F7
:1002CE00000A0003000D000200000003000D0001F3
:1002DE0000080001000800010008000100080001EC
:1002EE00000F0002000C0001000D000300080002C8
:1002FE00000000020008000100010001000D0001D5
:10030E00000D0002000D000100110002000D0001A1
:10031E00000D0003000A000200000002000A0002A5
:10032E00000800010008000100080001000800019B
:10033E00000F0002000C0001000D00050005000278
:10034E000006000200080004000D0004000C00026C
:10035E00000C0002000A0002000A0001000A00035D
:10036E000008000200030002000600010006000360
:10037E00000500020000000200010004000100025E
:10038E00000A0002000C0001000A0003000800022F
:10039E000000000200050002000600020008000234
:1003AE00000A0002000C0001000A0003000800020F
:1003BE000000000400080004000D0002000D000102
:1003CE00000D0001000A0002000A000200000002F7
:1003DE00000A000200080002000F0002000F0002D7
:1003EE00000C0001000D0001000D000200110002C2
:1003FE0000000002001200040012000200110002B0
:10040E00000D0002000D0002000A00020031000083
:10041E00000C0002000D0001000F0001000F00088B
:10042E0000000002000D0002000D0002000F00028D
:10043E00001100020014000200140002001400015A
:10044E00001400030012000200000002000D000262
:10045E00000F0002000F0002001200020014000143
:10046E00001200030011000200000004000D000243
:10047E00000D000200110002001200010011000325
:10048E00000F0002000A0002000C0002000D000422
:10049E00001100020012000100110003000F000203
:1004AE0000000002000800020011000400310000EC
:1004BE0000140002001400010014000100140002D8
:1004CE000012000200000002000D0002000F0002E8
:1004DE00000F0002001200020014000100120003BF
:1004EE000011000200000002000D0002000D0002CB
:1004FE000016000200000002000D0002000C0004B5
:10050E00001100020011000100110003000D000295
:10051E0000000002000F0001000D000500000004A5
:02052E00003299
:1008DD00606200040000F88CF8F3F95BF9B8FA15C2
:1008ED00FA67FAB9FB04FB4BFB90FBCFFC0CFC4405
:1008FD00FC79FCACFCDCFD09FD34FD5CFD82FDA644
:10090D00FDC8FDE8FE06FE22FE3DFE56FE6EFE858E
:10091D00FE9AFEAEFEC1FED3FEE4FEF4FF03FF1110
:10092D00FF1EFF2BFF37FF42FF4DFF57FF61FF6992
:10093D00FF72FF7AFF814200660000420002007DD7
:100BDF0074102FF58274003EF583E493FC74019337
:100BEF00FD900002E0FEA3E0FF1207EA900000EE86
:040BFF00F0A3EFF080
:100C03007D067F021209D47D067F031209D47D0677
:0C0C13007F041209D47D087F080209D478
:100C1F007D70E4FF120D237DF87F01120D237DFC03
:100C2F007F02120D237D7E7F03120D237D7E7F04B5
:100C3F00120D237DFC7F05120D237DF87F06120D0B
:080C4F00237D707F07020D23D5
:1006EE00120D60120DDEE4F580900066E0FEA3E0D0
:1006FE007802C333CE33CED8F9FF240EF5827400C0
:10070E003EF5837401937002E4937028C28C120B31
:10071E00DF120C1F900000E0FEA3E0FF120D77E445
:10072E00F580D28C900067E004F070BD900066E01A
:10073E0004F080B5900066E0FEA3E07802C333CEED
:10074E0033CED8F9FF240EF58274003EF583740182
:10075E009364327002E493604B120BDF120C1F9005
:10076E000000E0FEA3E0FF120D77E4F58090006735
:10077E00E02401FF900066E03400FEEF25E0FFEE7E
:10078E0033FEEF64314E600BC28C7F057E00120D7E
:10079E0077D28C900067E004F07006900066E0045B
:0F07AE00F00206F7C28C120C1F120C030206F7A2
:03000B00020AF7EF
:100AF700C0E0C083C082C0D075D000C000C006C0AF
:100B070007900066E0FEA3E07802C333CE33CED869
:100B1700F9240EF58274003EF58374019325E0FFF6
:100B2700E49333FE74042FF58274003EF583E0FEF0
:100B3700A3E0F58AEEF58CB2A5D007D006D000D099
:080B4700D0D082D083D0E0324F
:05000300007FE3DFFEB9
:0100080022D5
:040D4500AD07AC0644
:100D4900E4FBFAC3EB9DEA9C500CB2A51200030B1D
:060D5900BB00010A80ED61
:010D5F002271
:10053000E4900098F07590FFC2932097167F14FE08
:10054000120D773097FD7F147E00120D7790009882
:100550007401F02096177F147E00120D773096FDFF
:100560007F147E00120D779000987405F020951787
:100570007F147E00120D773095FD7F147E00120DE2
:10058000779000987409F02094177F147E00120D64
:10059000773094FD7F147E00120D77900098740DD3
:1005A000F07590FFC2922097177F147E00120D778E
:1005B0003097FD7F147E00120D779000987402F042
:1005C0002096177F147E00120D773096FD7F147EE3
:1005D00000120D779000987406F02095177F147E16
:1005E00000120D773095FD7F147E00120D7790007C
:1005F00098740AF02094177F147E00120D773094BF
:10060000FD7F147E00120D77900098740EF07590A7
:10061000FFC2912097177F147E00120D773097FD4F
:100620007F147E00120D779000987403F0209617C7
:100630007F147E00120D773096FD7F147E00120D20
:10064000779000987407F02095177F147E00120DA4
:10065000773095FD7F147E00120D77900098740B13
:10066000F02094177F147E00120D773094FD7F14D4
:100670007E00120D77900098740FF07590FFC29075
:100680002097177F147E00120D773097FD7F147E20
:1006900000120D779000987404F02096177F147E56
:1006A00000120D773096FD7F147E00120D779000BA
:1006B000987408F02095177F147E00120D773095FE
:1006C000FD7F147E00120D77900098740CF020943A
:1006D000177F147E00120D773094FD7F147E001278
:0D06E0000D779000987410F0900098E0FFE6
:0106ED0022EA
:10096200E4900099F020B1167F14FE120D7730B199
:10097200FD7F147E00120D779000997401F020B073
:10098200177F147E00120D7730B0FD7F147E0012A7
:100992000D779000997402F020B2177F147E001236
:1009A2000D7730B2FD7F147E00120D77900099749E
:1009B20003F020B3177F147E00120D7730B3FD7F52
:1009C200147E00120D779000997404F0900099E063
:0109D200FF25
:0109D3002201
:100D7700EF4E600F7D027CEFDCFEDDFCEF1F70F0B5
:030D87001E80EDDE
:010D8A002246
:100D60005389F0438901758A66758CFCC28DD28CDB
:070D7000D2A9D2AFC2B922E3
:100D9F002020202020202020202020202020202044
:010DAF000043
:10094D005100683F065B4F666D7D077F6F777C3981
:04095D005E7971004E
:1009D400EF14B4080050549009E975F003A4C583DA
:1009E40025F0C58373020A01020A05020A09020AF4
:1009F4000D020A11020A19020A21020A29D2A4804C
:100A04000ED2A48012D2A48016D2A4801AC2A4D278
:100A1400A3D2A28016C2A4D2A3C2A2800EC2A4C230
:100A2400A3D2A28006C2A4C2A3C2A274682DF58276
:0F0A3400E43400F583E0F5807F017E00020D774A
:060DB000C2A58F80D2A74E
:080DB6007F027EEFDEFEDFFC90
:010DBE002212
:0A0DCA00C2A6120DB0C2A7020DB6BA
:100CBA00E0FCA3E0FDCFCDCFCECCCE1207FC7C006A
:090CCA007D0A1207FCED2430FF45
:0A0CD300D2A6120DB0C2A7020DB6A2
:050CDD00EAF0A3EBF0BA
:100CE200AE07EEFB7A0064017004ED148009EB6438
:0E0CF200024A7009ED243F4480FF120DCA2211
:100D8B007F38120DCA7F0C120DCA7F06120DCA7F57
:040D9B0001020DCA7A
:0A0DD400AC03120CE2AF04020CD3D2
:0B0C8D00900095EBF0A3EAF0A3E9F063
:100C9800120CE2E4FD900095E0FBA3E0FAA3E0F972
:100CA8008D827583001207BDFF6006120CD30D807C
:010CB800E457
:010CB9002218
:0A0A4300EF24FFFDEE34FFFC7F0AF4
:0E0A4D00900080EEF0A3EFF0A3ECF0A3EDF02C
:100A5B00A3E4F0A304F0E4FBEBFFD3900083E09F4F
:100A6B007480F8900082E0648098401E900084E0CF
:100A7B00FEA3E0FF900080E0FCA3E0FD1207EA90EC
:100A8B000084EEF0A3EFF00B80CE900084E0FEA389
:020A9B00E0FF7A
:010A9D002236
:030D0000900088D8
:100D0300120CDDA3E0FAEAFF7E00D3940074809412
:0F0D130080400C120A43900088120CBA1A80E735
:010D220022AE
:030A9E0090007B4A
:100AA100120CDDC390007BE064809480400F7F2BAB
:100AB100120CD3E0FFA3E090007ECF80167F2D12B1
:100AC1000CD390007BE0FEA3E0FFC3E49FFFE49E14
:100AD10090007EF0A3EFF090007DE0FAEAFF7E0047
:100AE100D3940074809480400C120A4390007E12CB
:050AF1000CBA1A80E7B9
:010AF60022DD
:030B4F0090008D86
:100B5200120CDDA3E0FAEAD3940074809480403B47
:100B6200EA24FFFDE434FFFC7F107E00120A4D9060
:100B7200008DE0FCA3E0FDCFCDCFCECCCE1207FCA2
:100B8200EF540FFEC3940A74809480EE5004243014
:0B0B920080022437FF120CD31A80BB36
:010B9D002235
:030B9E0090009232
:100BA100120CDDA3E0FAEAFF7E00D3940074809476
:100BB10080402AEF24FFFDEE34FFFC7F02120A4D34
:100BC100900092E0FCA3E0FDCFCDCFCECCCE1207BA
:0D0BD100FCEF54012430FF120CD31A80C930
:010BDE0022F4
:0B0DBF007BFF7A0D799F7D01020C8DF7
:020C5700AD07E7
:100C5900E4FBEBC394087480948050237E00748075
:100C6900A803088006CEA2E713CE13D8F8FFEDF546
:100C790082EF558224FF92B4D2B6C2B60B80D3D28A
:030C8900B5C2B53C
:010C8C002245
:100D2300AC07AF05120C57AF04A807748008800204
:100D3300C313D8FCF4F5807F017E00120D77758014
:020D4300FF228D
:050DDE00C2B6C2B522FF
:03000000020851A2
:0C085100787FE4F6D8FD75810702089856
:1007BD00BB010CE58229F582E5833AF583E02250F1
:1007CD0006E92582F8E622BBFE06E92582F8E2223B
:0D07DD00E58229F582E5833AF583E4932255
:1007EA00EF8DF0A4A8F0CF8CF0A428CE8DF0A42E23
:0207FA00FE22DD
:1007FC00BC000BBE0029EF8DF084FFADF022E4CCE1
:10080C00F875F008EF2FFFEE33FEEC33FCEE9DECA9
:10081C00984005FCEE9DFE0FD5F0E9E4CEFD22EDEF
:10082C00F8F5F0EE8420D21CFEADF075F008EF2F39
:10083C00FFED33FD4007985006D5F0F222C398FD2A
:05084C000FD5F0EA22C7
:10085D000206EEE493A3F8E493A34003F68001F2BD
:10086D0008DFF48029E493A3F85407240CC8C3339C
:10087D00C4540F4420C8834004F456800146F6DF6B
:10088D00E4800B01020408102040809008DDE47E16
:10089D00019360BCA3FF543F30E509541FFEE49360
:1008AD00A360010ECF54C025E060A840B8E493A327
:1008BD00FAE493A3F8E493A3C8C582C8CAC583CA52
:1008CD00F0A3C8C582C8CAC583CADFE9DEE780BE0A
:010961000095
:00000001FF
