:1005EB00120B4B7FE87E03120B03120AEF120B4B1D
:1005FB001207808F458E448D438C42E4FFFEFDFC39
:10060B00AB45AA44A943A8421201A9501E7B2D7DDC
:10061B00017F02120B6DAF45AE44AD43AC421202EB
:10062B00228F458E448D438C4280097B2B7D017F2D
:10063B0002120B6DAF45AE44AD43AC42120271AB2F
:10064B0007AA06752F037D027F021209A07B2E7D60
:10065B00057F02120B6D7F007E407D1C7C46AB45F7
:10066B00AA44A943A842120003120271E47B107A38
:10067B0027F9F81203C2752F047D067F021209A019
:03068B000205F86D
:050B7E00007FE3DFFE33
:010B8300224F
:040AA300AD07AC06E9
:100AA700E4FBFAC3EB9DEA9C500CB2A5120B7E0B3C
:060AB700BB00010A80ED06
:010ABD002216
:100B2B0020202020202020202020202020202020BA
:010B3B0000B9
:10095000090910101010101010101019123F065B2A
:100960004F666D7D077F6F777C395E79710020104F
:09097000010204400880010801A5
:070B770074092FF8A6052206
:10071A00E4F580EF14B40800505490073275F003E2
:10072A00A4C58325F0C5837302074A02074E020750
:10073A005202075602075A02076202076A02077242
:10074A00D2A4800ED2A48012D2A48016D2A4801A77
:10075A00C2A4D2A3D2A28016C2A4D2A3C2A2800EDD
:10076A00C2A4C2A3D2A28006C2A4C2A3C2A2741205
:06077A002DF8E6F58022D7
:100A690074092508F8E6FDAF0812071A0508D3E549
:0C0A790008940874809480400375080104
:010A8500224E
:060B3C00C2A58F80D2A7C4
:080B42007F027EEFDEFEDFFC06
:010B4A002288
:0A0B6300C2A6120B3CC2A7020B420F
:100A2D00CFCDCFCECCCE1203317C007D0A12033157
:040A3D00ED2430FF75
:0A0A4100D2A6120B3CC2A7020B4222
:100A4B00AE07EEFB7A0064017004ED148009EB64D1
:0E0A5B00024A7009ED243F4480FF120B632213
:100AEF007F38120B637F0C120B637F06120B637F31
:040AFF0001020B6382
:0A0B6D00AC03120A4BAF04020A4168
:0609E8008B4B8A4C894D87
:1009EE00120A4BE4FDAB4BAA4CA94D8D82758300C8
:0C09FE001202F2FF6006120A410D80E9AF
:010A0A0022C9
:0A091F00EF24FFFDEE34FFFC7F0A19
:080929008E368F378C388D39B2
:100931007F017E00E4FBEBC39539E5386480F874F0
:0E0941008098500AAC36AD3712031F0B80E8C9
:01094F002285
:0409A0008A2D8B2EE3
:1009A400120A4BAA2FEAFF7E00D39400748094802D
:0F09B400400D12091FAC2DAD2E120A2D1A80E630
:0109C3002211
:04081F008B828A83BB
:10082300120A4BC3E58364809480400D7F2B120A28
:100833004185833F85824080107F2D120A41C3E4A6
:100843009582F540E49583F53FAA3EEAFF7E00D307
:10085300940074809480400D12091FAC3FAD401288
:050863000A2D1A80E6D9
:01086800226D
:0407D4008A488B497B
:1007D800120A4BAA4AEAD39400748094804037EAFC
:1007E80024FFFDE434FFFC7F107E00120929AC4889
:1007F800AD49CFCDCFCECCCE120331EF540FFEC3CF
:10080800940A74809480EE5004243080022437FFC8
:06081800120A411A80BF24
:01081E0022B7
:0408AC008A338B34CC
:1008B000120A4BAA35EAFF7E00D39400748094801C
:1008C0004026EF24FFFDEE34FFFC7F02120929AC25
:1008D00033AD34CFCDCFCECCCE120331EF54012483
:0808E00030FF120A411A80CD1D
:0108E80022ED
:0B0B58007BFF7A0B792B7D010209E87E
:0208E900AD0759
:1008EB00E4FBEBC394087480948050237E007480E7
:1008FB00A803088006CEA2E713CE13D8F8FFEDF5B8
:10090B0082EF558224FF92B4D2B6C2B60B80D3D2FB
:03091B00B5C2B5AD
:01091E0022B6
:1009C400AE05AC07AF061208E9AF04A807748008A7
:1009D4008002C313D8FCF4F5807F017E00120B0360
:0409E4007580FF22F9
:050B8A00C2B6C2B52255
:10046200E4F5517590FFC2932097137F14FE120B8F
:10047200033097FD7F147E00120B03755101209605
:10048200147F147E00120B033096FD7F147E00123F
:100492000B037551052095147F147E00120B033057
:1004A20095FD7F147E00120B037551092094147F71
:1004B200147E00120B033094FD7F147E00120B0396
:1004C20075510D7590FFC2922097147F147E001211
:1004D2000B033097FD7F147E00120B03755102202F
:1004E20096147F147E00120B033096FD7F147E005B
:1004F200120B037551062095147F147E00120B0314
:100502003095FD7F147E00120B0375510A2094145E
:100512007F147E00120B033094FD7F147E00120BB9
:100522000375510E7590FFC2912097147F147E00BF
:10053200120B033097FD7F147E00120B03755103DB
:100542002096147F147E00120B033096FD7F147EDA
:1005520000120B037551072095147F147E00120BB5
:10056200033095FD7F147E00120B0375510B20940E
:10057200147F147E00120B033094FD7F147E001250
:100582000B0375510F7590FFC2902097147F147E54
:1005920000120B033097FD7F147E00120B0375517E
:1005A200042096147F147E00120B033096FD7F14F4
:1005B2007E00120B037551082095147F147E0012E1
:1005C2000B033095FD7F147E00120B0375510C2036
:1005D20094147F147E00120B033094FD7F147E006E
:0805E200120B03755110AF511B
:0105EA0022EE
:050B8400AF50E4F55044
:010B89002249
:100AD900E4FF20B1010F20B0027F0220B2027F03A0
:050AE90020B3027F04B0
:010AEE0022E5
:10086900854E4F120AD98F4EAF4F7E00EF6401704B
:1008790008E54E700475500122EF64024E7008E5D8
:100889004E700475500222E54F64037008E54E70FE
:100899000475500322E54F64047007E54E70037533
:0208A9005004F9
:0108AB00222A
:100B0300EF4E600F7D027CEFDCFEDDFCEF1F70F02B
:030B13001E80ED54
:010B160022BC
:100A8600D2B7C2B7007FE3DFFED2B7007F1DDFFE1D
:0C0A9600A2B7E433FE007FE3DFFEAF06F2
:010AA2002231
:100B1700C2B7007E03DEFEEF24FF92B7007E14DE2D
:030B2700FED2B744
:010B2A0022A8
:020A0B00AD0735
:100A0D00E4FCECC39408748094805013A804740122
:0F0A1D00088002C333D8FC5DFF120B170C80E377
:010A2C0022A7
:100ABE00C2B7007F01DFFED2B7007F01DFFEA2B713
:0A0ACE00E433FE007F14DFFEAF06E4
:010AD80022FB
:10097A00E4FDFCECC39408748094805016120ABEFD
:10098A00EF600DA8047401088002C333D8FC420545
:05099A000C80E0AF0538
:01099F002235
:0D0B4B00120A867FCC120A0B7F44020A0BAF
:10078000120A867FCC120A0B7FBE120A0B12097A5C
:100790008F2B12097A8F2CEFFB7A007535087D01BB
:1007A0007F011208ACE52BFB7A007535087D097FC7
:1007B000011208ACE52CFEE52BFFFDAC06EC1202A5
:1007C00038E4FBFA7980784112010C8F308E2F8D3E
:0307D0002E8C2D3F
:0107D3002203
:10000300EC4D6011E8497017ED33EC3304600DE4F7
:10001300FCFFFEFD22E933E8330470F80202DD122F
:1000230002A858046009E4CC248150062850090230
:1000330002E72840030202E4C0E0EB4A7044B980BF
:1000430006D0E0FB0202D3EF4E701CBD8008EBFF2D
:10005300EAFEE9FD80EBE98DF0A4FEE5F00200EC99
:10006300E9CDF9EAFEEBFFEF89F0A4FCE5F0CE89D8
:10007300F0A42EFFE435F0CD89F0A42DFEE435F095
:100083008067EF4E7005BD80D780C3EF8BF0A4ACC3
:10009300F0EE8BF0A42CFCE435F0F8EF8AF0A42CFE
:1000A300E5F038FCE433CB8DF0A42CFCE5F03BF811
:1000B300EE8AF0A42CFCE5F038F8E433CF89F0A401
:1000C3002CFCE5F038CF3400CE89F0A42FFFE5F007
:1000D3003EFEE433C98DF0A42EFEE5F039CD8AF05F
:1000E300A42FFFE5F03EFEE43DFD33D0E0FB5007D7
:1000F3000BBB000F0202E7EC2CFCEF33FFEE33FEE9
:06010300ED33FD0202BF16
:100109000202E7EC5D046005E8590470030202DDB0
:100119001202A8580460F6EC4860F2EC7004FDFE87
:10012900FF22C860DB2481C85009C39860025006C9
:100139000202E49850CAF582E9294B4A7005AB825C
:100149000202D375F0007C1A7880C3EF9BEE9AED1A
:1001590099400DC3EF9BFFEE9AFEED99FDE842F041
:10016900DC23ACF0D0E0FFD0E0FED0E0FDAB822094
:10017900E7101BEB60BAEC2CFCEF33FFEE33FEED1E
:1001890033FD0202BFE803F830E705C0F075F0005F
:10019900EF2FFFEE33FEED33FD40B830E7C280AA02
:1001A90074F8CC6480CCC86480C8F58204604FC3FD
:1001B900EB9FF5F0EA9E42F0E99D42F0E89C45F09C
:1001C900603C501DE5825FFFE582D313CB5BCBF426
:1001D9002B5582FB50280ABA002409B9002008804F
:1001E9001DE5825BFBE582D313CF5FCFF4C3132FE9
:1001F9005582FF50090EBE00050DBD00010CC3EB71
:100209009FF5F0EA9E42F0E99D42F0E89C45F060D6
:0902190007CC4820E701B3EC22F8
:10022200ED33EC33600A047003BD8004ECB2E7FCEA
:0102320022A9
:1002330075F020800E75F010800575F0087D007E46
:10024300007F003392D530D503120454EC334010B1
:10025300EF33FFEE33FEED33FDEC33FCD5F0ED224F
:0E026300E5F0247EA2D513CC92E7CDCEFF228B
:10027100EDD2E7CD33EC3392D524814006E4FFFE85
:10028100FDFC22FCE4CFCECDCC24E0501174FF80E4
:10029100EDC3CC13CCCD13CDCE13CECF13CF047081
:0702A100F030D5DE02045429
:1002A800E9D2E7C933E833F892D5EDD2E7CD33EC9C
:0702B80033FC5002B2D52215
:1002BF00EC30E7100FBF000C0EBE00080DBD0004A0
:1002CF000BEB6014A2D5EB13FCED92E7FD2274FF4C
:1002DF00FCFDFEFF22E480F8A2D574FF13FC7D80A5
:0302EF00E480EFB9
:0300000002068E67
:0C068E00787FE4F6D8FD7581510206D596
:1002F200BB010CE58229F582E5833AF583E02250C1
:1003020006E92582F8E622BBFE06E92582F8E2220A
:0D031200E58229F582E5833AF583E4932224
:10031F00EF8DF0A4A8F0CF8CF0A428CE8DF0A42EF2
:02032F00FE22AC
:10033100BC000BBE0029EF8DF084FFADF022E4CCB0
:10034100F875F008EF2FFFEE33FEEC33FCEE9DEC79
:10035100984005FCEE9DFE0FD5F0E9E4CEFD22EDBF
:10036100F8F5F0EE8420D21CFEADF075F008EF2F09
:10037100FFED33FD4007985006D5F0F222C398FDFA
:050381000FD5F0EA2297
:1003860075F008758200EF2FFFEE33FECD33CDCC2E
:1003960033CCC58233C5829BED9AEC99E5829840B1
:1003A6000CF582EE9BFEED9AFDEC99FC0FD5F0D68E
:1003B600E4CEFBE4CDFAE4CCF9A88222B800C1B9B8
:1003C6000059BA002DEC8BF084CFCECDFCE5F0CBF6
:1003D600F97818EF2FFFEE33FEED33FDEC33FCEB2F
:1003E60033FB10D703994004EB99FB0FD8E5E4F9EA
:1003F600FA227818EF2FFFEE33FEED33FDEC33FCD7
:10040600C933C910D7059BE99A4007EC9BFCE99ACA
:10041600F90FD8E0E4C9FAE4CCFB2275F010EF2F0F
:10042600FFEE33FEED33FDCC33CCC833C810D7070F
:100436009BEC9AE899400AED9BFDEC9AFCE899F84A
:0E0446000FD5F0DAE4CDFBE4CCFAE4C8F922DD
:0E045400C3E49FFFE49EFEE49DFDE49CFC22B9
:10069A000205EBE493A3F8E493A34003F68001F286
:1006AA0008DFF48029E493A3F85407240CC8C33361
:1006BA00C4540F4420C8834004F456800146F6DF30
:1006CA00E4800B0102040810204080900950E47E67
:1006DA00019360BCA3FF543F30E509541FFEE49325
:1006EA00A360010ECF54C025E060A840B8E493A3EC
:1006FA00FAE493A3F8E493A3C8C582C8CAC583CA17
:10070A00F0A3C8C582C8CAC583CADFE9DEE780BECE
:01097900007D
:00000001FF
