:1000F20011303F065B4F666D7D077F6F777C395EFF
:1001020079710014080000000100020003000400DD
:10011200050006000700080009141C00000000008A
:0F012200000000000000000000000000000000CE
:10008F00EF14B4080050549000A475F003A4C58376
:10009F0025F0C583730200BC0200C00200C4020039
:1000AF00C80200CC0200D40200DC0200E4D2A4801B
:1000BF000ED2A48012D2A48016D2A4801AC2A4D2C7
:1000CF00A3D2A28016C2A4D2A3C2A2800EC2A4C27F
:1000DF00A3D2A28006C2A4C2A3C2A274302DF8E696
:0300EF00F5802277
:10016200EF4E600F7D027CEFDCFEDDFCEF1F70F0D6
:030172001E80EDFF
:010175002267
:10013200E4F541C3E541940A7480948050F2E541AC
:1001420025E0241CF808E6FFE54125E02408F8082C
:10015200E6FD12008F05417FF47E0112016280D319
:03000000020003F8
:0C000300787FE4F6D8FD75814102004AC8
:10000F00020132E493A3F8E493A34003F68001F2D4
:10001F0008DFF48029E493A3F85407240CC8C333F2
:10002F00C4540F4420C8834004F456800146F6DFC1
:10003F00E4800B01020408102040809000F2E47E5F
:10004F00019360BCA3FF543F30E509541FFEE493B6
:10005F00A360010ECF54C025E060A840B8E493A37D
:10006F00FAE493A3F8E493A3C8C582C8CAC583CAA8
:10007F00F0A3C8C582C8CAC583CADFE9DEE780BE60
:0101310000CD
:00000001FF
