:0603EC0048656C6C6F0017
:1002B500100800000001000200030004000500060C
:1002C50000071018000100020003000400050006E5
:0402D5000007000816
:100190001203B57B417D017F011203E27BFF7A03ED
:1001A00079EC7D037F01120342753D037B7B7A006E
:1001B0007D097F0112031E753D027BBE7AFF7D0D16
:1001C0007F0112022E753D027BA87A007D017F021D
:1001D0001201E3753D087BAA7A007D047F021202BA
:0301E0007880FE26
:1003A100EF4E600F7D027CEFDCFEDDFCEF1F70F095
:0303B1001E80EDBE
:0103B4002226
:1002D90011283F065B4F666D7D077F6F777C395E1E
:0302E90079710028
:10012300EF14B40800505490013875F003A4C5834C
:1001330025F0C583730201500201540201580201E4
:100143005C020160020168020170020178D2A4809E
:100153000ED2A48012D2A48016D2A4801AC2A4D232
:10016300A3D2A28016C2A4D2A3C2A2800EC2A4C2EA
:10017300A3D2A28006C2A4C2A3C2A274282DF8E609
:0D018300F5807F017E001203A1E4F58022CB
:0603C900C2A58F80D2A73F
:0803CF007F027EEFDEFEDFFC81
:0103D7002203
:0A03D800C2A61203C9C2A70203CF98
:10036500CFCDCFCECCCE1200427C007D0A1200420A
:04037500ED2430FF44
:0A037900D2A61203C9C2A70203CFE7
:10038300AE07EEFB7A0064017004ED148009EB64A0
:0E039300024A7009ED243F4480FF1203D82275
:1003B5007F381203D87F0C1203D87F061203D87F2B
:0403C500010203D856
:0A03E200AC03120383AF0402037999
:060342008B398A3A893B69
:10034800120383E4FDAB39AA3AA93B8D8275830079
:0C035800120003FF60061203790D80E91B
:010364002276
:0A02ED00EF24FFFDEE34FFFC7F0A52
:0802F7008E408F418C428D43C3
:1002FF007F017E00E4FBEBC39543E5426480F87415
:0E030F008098500AAC40AD411200300B80E8DF
:01031D0022BD
:04031E008A3B8B3C4F
:10032200120383AA3DEAFF7E00D394007480948076
:0F033200400D1202EDAC3BAD3C1203651A80E6A4
:010341002299
:04022E008B828A83B2
:10023200120383C3E58364809480400D7F2B1203F5
:100242007985833E85823F80107F2D120379C3E436
:100252009582F53FE49583F53EAA3DEAFF7E00D301
:10026200940074809480400D1202EDAC3EAD3F12BA
:0502720003651A80E69F
:010277002264
:0401E3008A3B8B3C8C
:1001E700120383AA3DEAD39400748094804037EACF
:1001F70024FFFDE434FFFC7F107E001202F7AC3BC6
:10020700AD3CCFCDCFCECCCE120042EF540FFEC3C4
:10021700940A74809480EE5004243080022437FFBF
:060227001203791A80BFEA
:01022D0022AE
:040278008A3B8B3CF6
:10027C00120383AA3DEAFF7E00D39400748094801D
:10028C004026EF24FFFDEE34FFFC7F021202F7AC98
:10029C003BAD3CCFCDCFCECCCE120042EF5401249F
:0802AC0030FF1203791A80CD26
:0102B4002227
:0300000002009764
:0C009700787FE4F6D8FD7581430200DE9E
:10000300BB010CE58229F582E5833AF583E02250B2
:1000130006E92582F8E622BBFE06E92582F8E222FC
:0D002300E58229F582E5833AF583E4932216
:10003000EF8DF0A4A8F0CF8CF0A428CE8DF0A42EE4
:02004000FE229E
:10004200BC000BBE0029EF8DF084FFADF022E4CCA2
:10005200F875F008EF2FFFEE33FEEC33FCEE9DEC6B
:10006200984005FCEE9DFE0FD5F0E9E4CEFD22EDB1
:10007200F8F5F0EE8420D21CFEADF075F008EF2FFB
:10008200FFED33FD4007985006D5F0F222C398FDEC
:050092000FD5F0EA2289
:1000A300020190E493A3F8E493A34003F68001F2E2
:1000B30008DFF48029E493A3F85407240CC8C3335E
:1000C300C4540F4420C8834004F456800146F6DF2D
:1000D300E4800B01020408102040809002B5E47E06
:1000E300019360BCA3FF543F30E509541FFEE49322
:1000F300A360010ECF54C025E060A840B8E493A3E9
:10010300FAE493A3F8E493A3C8C582C8CAC583CA13
:10011300F0A3C8C582C8CAC583CADFE9DEE780BECB
:0102EC000011
:00000001FF
