:0E0078001200507B637D017F0112000380FEA9
:10002000C2A6C2A58F80D2A77F017E00120064C243
:08003000A77F017E00020064BD
:10003800D2A6C2A58F80D2A77F017E00120064C21B
:08004800A77F017E00020064A5
:100050007F381200207F0C1200207F061200207FC4
:040060000102002079
:100003008D088B09EF64017005E508148004E50889
:0D001300243F4480FF120020AF0902003896
:10006400EF4E600F7D027CEFDCFEDDFCEF1F70F0D5
:030074001E80EDFE
:010077002266
:0300000002008675
:0C008600787FE4F6D8FD7581090200784F
:00000001FF
