:1006210020202020202020202020202020202020C9
:0106310000C8
:10059D0011083F065B4F666D7D077F6F777C395E77
:0305AD0079710061
:10039700EF14B4080050549003AC75F003A4C58360
:1003A70025F0C583730203C40203C80203CC02030A
:1003B700D00203D40203DC0203E40203ECD2A480DC
:1003C7000ED2A48012D2A48016D2A4801AC2A4D2BC
:1003D700A3D2A28016C2A4D2A3C2A2800EC2A4C274
:1003E700A3D2A28006C2A4C2A3C2A274082DF8E6B3
:0D03F700F5807F017E0012060DE4F58022E6
:06063200C2A58F80D2A7D3
:080638007F027EEFDEFEDFFC15
:010640002297
:0A064C00C2A6120632C2A702063849
:1005BD00CFCDCFCECCCE1202B67C007D0A1202B6C4
:0405CD00ED2430FFEA
:0A05D100D2A6120632C2A7020638B5
:1005DB00AE07EEFB7A0064017004ED148009EB6446
:0E05EB00024A7009ED243F4480FF12064C22A4
:1005F9007F3812064C7F0C12064C7F0612064C7F80
:040609000102064C98
:0A065600AC031205DBAF040205D16E
:06057A008B198A1A891B8F
:100580001205DBE4FDAB19AA1AA91B8D8275830045
:0C059000120277FF60061205D10D80E911
:01059C00223C
:0A052500EF24FFFDEE34FFFC7F0A17
:08052F008E1E8F1F8C208D2110
:100537007F017E00E4FBEBC39521E5206480F8741E
:0E0547008098500AAC1EAD1F1202A40B80E873
:010555002283
:040556008A1B8B1C55
:10055A001205DBAA1DEAFF7E00D394007480948002
:0F056A00400D120525AC1BAD1C1205BD1A80E615
:01057900225F
:04049E008B828A8340
:1004A2001205DBC3E58364809480400D7F2B120527
:1004B200D185832785822880107F2D1205D1C3E440
:1004C2009582F528E49583F527AA26EAFF7E00D3D4
:1004D200940074809480400D120525AC27AD28123B
:0504E20005BD1A80E6D3
:0104E70022F2
:040453008A328B332B
:100457001205DBAA34EAD39400748094804037EA0B
:1004670024FFFDE434FFFC7F107E0012052FAC3221
:10047700AD33CFCDCFCECCCE1202B6EF540FFEC3E5
:10048700940A74809480EE5004243080022437FF4D
:060497001205D11A80BF1E
:01049D00223C
:0404E8008A378B388C
:1004EC001205DBAA39EAFF7E00D394007480948055
:1004FC004026EF24FFFDEE34FFFC7F0212052FACEB
:10050C0037AD38CFCDCFCECCCE1202B6EF540124BE
:08051C0030FF1205D11A80CD59
:0105240022B4
:0B0641007BFF7A0679217D0102057A1B
:10060D00EF4E600F7D027CEFDCFEDDFCEF1F70F026
:03061D001E80ED4F
:0106200022B7
:1004040050617373776F72643A004C656E677468F9
:1004140020657863656564210050776420636F729A
:1004240072656374210050776420696E636F727221
:10043400656374210052657365740057656C636F5E
:0F0444006D652C004D79206D61737465722E000B
:0C05B000022D151A022B00000229000188
:10018C001205F97BFF7A0479047D017F0112057A4F
:10019C001200038F2FEF6058D3940A748094805010
:1001AC004FE52F75F00A8485F02FAE2BAF2C7C0019
:1001BC007D0A1202A4EF252FF52CEC3EF52BD3E58E
:1001CC002A9404E529940040087BFF7A04790E8078
:1001DC005C7F027E00120641852A1DAB2CAA2B7D6A
:1001EC00017F02120556052AE52A70A4052980A074
:1001FC00E52F640B7028E52CB52E1BE52BB52D16C1
:10020C007BFF7A04791D7D017F0212057A7FE87EDF
:10021C000312060D802B7BFF7A04792A800FE52FC1
:10022C00640C600302019C7BFF7A0479397D017FA9
:10023C000212057AE4F52BF52CF529752A01020139
:10024C009C7F017E001206417F027E001206417BDC
:10025C00FF7A04793F7D017F0112057A7BFF7A04D6
:0B026C0079487D017F0212057A80E4D2
:10000300E4F5197590FFC2932097137F14FE12062F
:100013000D3097FD7F147E0012060D751901209691
:10002300147F147E0012060D3096FD7F147E00129D
:10003300060D7519052095147F147E0012060D30E8
:1000430095FD7F147E0012060D7519092094147F07
:10005300147E0012060D3094FD7F147E0012060DEF
:1000630075190D7590FFC2922097147F147E0012AC
:10007300060D3097FD7F147E0012060D75190220C0
:1000830096147F147E0012060D3096FD7F147E00B9
:1000930012060D7519062095147F147E0012060DA5
:1000A3003095FD7F147E0012060D75190A209414F5
:1000B3007F147E0012060D3094FD7F147E0012061D
:1000C3000D75190E7590FFC2912097147F147E0051
:1000D30012060D3097FD7F147E0012060D7519036D
:1000E3002096147F147E0012060D3096FD7F147E39
:1000F3000012060D7519072095147F147E00120651
:100103000D3095FD7F147E0012060D75190B20949A
:10011300147F147E0012060D3094FD7F147E0012AE
:10012300060D75190F7590FFC2902097147F147EEA
:100133000012060D3097FD7F147E0012060D75190F
:10014300042096147F147E0012060D3096FD7F1452
:100153007E0012060D7519082095147F147E001277
:10016300060D3095FD7F147E0012060D75190C20C7
:1001730094147F147E0012060D3094FD7F147E00CC
:0801830012060D751910AF19E9
:01018B002251
:0300000002030BED
:0C030B00787FE4F6D8FD758139020352BA
:10027700BB010CE58229F582E5833AF583E022503C
:1002870006E92582F8E622BBFE06E92582F8E22286
:0D029700E58229F582E5833AF583E49322A0
:1002A400EF8DF0A4A8F0CF8CF0A428CE8DF0A42E6E
:0202B400FE2228
:1002B600BC000BBE0029EF8DF084FFADF022E4CC2C
:1002C600F875F008EF2FFFEE33FEEC33FCEE9DECF5
:1002D600984005FCEE9DFE0FD5F0E9E4CEFD22ED3B
:1002E600F8F5F0EE8420D21CFEADF075F008EF2F85
:1002F600FFED33FD4007985006D5F0F222C398FD76
:050306000FD5F0EA2212
:1003170002018CE493A3F8E493A34003F68001F26F
:1003270008DFF48029E493A3F85407240CC8C333E7
:10033700C4540F4420C8834004F456800146F6DFB6
:10034700E4800B010204081020408090059DE47EA4
:10035700019360BCA3FF543F30E509541FFEE493AB
:10036700A360010ECF54C025E060A840B8E493A372
:10037700FAE493A3F8E493A3C8C582C8CAC583CA9D
:10038700F0A3C8C582C8CAC583CADFE9DEE780BE55
:0105BC00003E
:00000001FF
