:10000300E4F508C3E5089465748094805022E4F510
:1000130009C3E5099414748094805010D2A0AF08EA
:1000230012007DC2A0120077050980E5050880D380
:10003300E4F508C3E50894657480948050C2E4F540
:1000430009C3E5099414748094805010D2A012005F
:1000530077C2A0AF0812007D050980E5050880D3AB
:06007700C374649508FF4C
:07007D00AE071FEE70FA222E
:10006300EF4E600F7D027CEFDCFEDDFCEF1F70F0D6
:030073001E80EDFF
:010076002267
:0300000002008477
:0C008400787FE4F6D8FD758109020003C6
:00000001FF
