:10000600EF4E600F7D027CEFDCFEDDFCEF1F70F033
:030016001E80ED5C
:0100190022C4
:10001E00E4F55D7590FFC2932097137F14FE1200D6
:10002E00063097FD7F147E00120006755D01209646
:10003E00147F147E001200063096FD7F147E00128F
:10004E000006755D052095147F147E0012000630A3
:10005E0095FD7F147E00120006755D092094147FB5
:10006E00147E001200063094FD7F147E00120006EE
:10007E00755D0D7590FFC2922097147F147E00124D
:10008E0000063097FD7F147E00120006755D02207B
:10009E0096147F147E001200063096FD7F147E00AB
:1000AE00120006755D062095147F147E0012000660
:1000BE003095FD7F147E00120006755D0A209414A3
:1000CE007F147E001200063094FD7F147E00120015
:1000DE0006755D0E7590FFC2912097147F147E00F9
:1000EE001200063097FD7F147E00120006755D0328
:1000FE002096147F147E001200063096FD7F147E2B
:10010E0000120006755D072095147F147E00120004
:10011E00063095FD7F147E00120006755D0B20944F
:10012E00147F147E001200063094FD7F147E0012A0
:10013E000006755D0F7590FFC2902097147F147E98
:10014E00001200063097FD7F147E00120006755DCA
:10015E00042096147F147E001200063096FD7F1444
:10016E007E00120006755D082095147F147E001225
:10017E0000063095FD7F147E00120006755D0C2082
:10018E0094147F147E001200063094FD7F147E00BE
:08019E00120006755D10AF5D53
:0101A6002236
:0508B400AF53E4F55311
:0108B900221C
:1007DB00E4FF20B1010F20B0027F0220B2027F03A1
:0507EB0020B3027F04B1
:0107F00022E6
:1005E0008551521207DB8F51AF527E00EF640170CC
:1005F00008E551700475530122EF64024E7008E55E
:1006000051700475530222E55264037008E551707D
:100610000475530322E55264047007E551700375B5
:02062000530481
:0106220022B5
:1008050020202020202020202020202020202020E3
:0108150000E2
:10066000090910101010101010101019123F065B1D
:100670004F666D7D077F6F777C395E797100201042
:0906800001020440088001080198
:0708AD0074092FF8A60522D3
:10048100E4F580EF14B40800505490049975F0031A
:10049100A4C58325F0C583730204B10204B5020427
:1004A100B90204BD0204C10204C90204D10204D983
:1004B100D2A4800ED2A48012D2A48016D2A4801A13
:1004C100C2A4D2A3D2A28016C2A4D2A3C2A2800E79
:1004D100C2A4C2A3D2A28006C2A4C2A3C2A27412A1
:0604E1002DF8E6F5802273
:1007A70074092508F8E6FDAF081204810508D3E5AA
:0C07B700089408748094804003750801C9
:0107C3002213
:06083700C2A58F80D2A7CC
:08083D007F027EEFDEFEDFFC0E
:010845002290
:0A089000C2A6120837C2A702083DF5
:10076B00CFCDCFCECCCE1203357C007D0A12033514
:04077B00ED2430FF3A
:0A077F00D2A6120837C2A702083DF7
:10078900AE07EEFB7A0064017004ED148009EB6496
:0E079900024A7009ED243F4480FF12089022AE
:1007F1007F381208907F0C1208907F061208907FB4
:040801000102089058
:0A089A00AC03120789AF0402077FC8
:060748008B548A5589560E
:10074E00120789E4FDAB54AA55A9568D8275830014
:0C075E001202F6FF600612077F0D80E912
:01076A00226C
:0A06CF00EF24FFFDEE34FFFC7F0A6C
:0806D9008E4D8F4E8C4F8D50A9
:1006E1007F017E00E4FBEBC39550E54F6480F87415
:0E06F1008098500AAC4DAD4E1203230B80E8EA
:0106FF0022D8
:040700008A408B415F
:10070400120789AA42EAFF7E00D394007480948081
:0F071400400D1206CFAC40AD4112076B1A80E6C4
:0107230022B3
:040596008B828A8347
:10059A00120789C3E58364809480400D7F2B12077C
:1005AA007F85833C85823D80107F2D12077FC3E4BF
:1005BA009582F53DE49583F53CAA3BEAFF7E00D39C
:1005CA00940074809480400D1206CFAC3CAD3D126D
:0505DA00076B1A80E62A
:0105DF0022F9
:04054B008A458B460C
:10054F00120789AA47EAD39400748094804037EA4F
:10055F0024FFFDE434FFFC7F107E001206D9AC456A
:10056F00AD46CFCDCFCECCCE120335EF540FFEC359
:10057F00940A74809480EE5004243080022437FF54
:06058F0012077F1A80BF75
:010595002243
:040623008A4A8B4B29
:10062700120789AA4CEAFF7E00D394007480948055
:100637004026EF24FFFDEE34FFFC7F021206D9AC03
:100647004AAD4BCFCDCFCECCCE120335EF540124DC
:0806570030FF12077F1A80CD6D
:01065F002278
:0B086F007BFF7A0879057D0102074835
:02069900AD07AB
:10069B00E4FBEBC394087480948050237E00748039
:1006AB00A803088006CEA2E713CE13D8F8FFEDF50A
:1006BB0082EF558224FF92B4D2B6C2B60B80D3D24E
:0306CB00B5C2B500
:0106CE002209
:10072400AE05AC07AF06120699AF04A8077480089B
:100734008002C313D8FCF4F5807F017E001200060A
:040744007580FF229B
:0508C600C2B6C2B5221C
:1007C40053890F438910758B66758DFCC28FD28E49
:0707D400D2ABD2AFC2BB2281
:0B087A00D288C289D2A8D2AFD2B82227
:0608BA0012082702087A73
:030003000201A750
:1001A700C0E0C0F0C083C082C0D075D000C000C01E
:1001B70001C002C003C004C005C006C007E52B701C
:1001C70010FFFE1208857F011208C0752B0102027D
:1001D700DBE52B640170461208A48E2C8F2DE4FFFB
:1001E700FE120885D3E52D94CCE52C942E4010E51E
:1001F7002D94B4E52C94325006752B020202DBD302
:10020700E52D948CE52C94264010E52D9474E52C6F
:10021700942A50067530010202D30202D8E52B64F6
:100227000260030202DB1208A48E2C8F2DE4FFFE6E
:10023700120885D3E52D94DCE52C9402402BE52D9F
:100247009434E52C94055021E531131313541F24DE
:1002570033F8C000E6FFE5315407FEF87401088063
:1002670002C333D8FCF45F8033D3E52D94EEE52C3D
:100277009406402FE52D9446E52C94095025E53149
:10028700131313541F2433F8C000E6FFE531540756
:10029700FEF87401088002C333D8FC4FD000F6057E
:1002A700318006752B00753100C3E53194207480C9
:1002B70094804020753100E534F4B5330FE536F40A
:1002C700B5350975320185332F85352EE4FF1208C0
:1002D700C0752B00D007D006D005D004D003D002BC
:0F02E700D001D000D0D0D082D083D0F0D0E03280
:0D085500E5326006E4F5327F01227F0022CB
:0D086200E5306006E4F5307F01227F0022C2
:0308CB00AF2F222A
:0308CE00AF2E2228
:100827005389F0438901E4F58AF58CC28DC28C2285
:0B088500AD07AC068C8CAF058F8A22FB
:0908A400AF8CEFFEAD8AEDFF22DE
:0608C000EF24FF928C22E0
:090689000157000159000158005D
:0308D1000207C457
:10081600EFD39403748094804004E4F557228F57F5
:0108260022AF
:0308D400AF5722F9
:0308D7008F582215
:0F0846000559E559C395584003C29022D290221C
:06069200015A00015B00AB
:100416001208D11208BA1208D4AD077F011208AD2E
:10042600120855EF7006120862EF60F41208CE8FBC
:100436005CEF64167002802EE55C640C70097F0127
:100446001208167F328025E55C641870097F021257
:1004560008167F4B8016E55C645E70097F03120800
:10046600167F648007E4FF120816E4FF1208D7120D
:0B04760008D4AD077F011208AD80A57F
:03001B000204E7F5
:1004E700C0E0C0F0C083C082C0D075D000C000C0DB
:0D04F70001C002C003C004C005C006C0075C
:10050400758BA4758DFF055AC3E55A9402748094C3
:10051400804006120846755A00055BD3E55B940AD1
:0C0524007480948040061207A7755B00ED
:10053000D007D006D005D004D003D002D001D0001F
:0B054000D0D0D082D083D0F0D0E032C9
:0300000002038A6E
:0C038A00787FE4F6D8FD75815D0203D198
:1002F600BB010CE58229F582E5833AF583E02250BD
:1003060006E92582F8E622BBFE06E92582F8E22206
:0D031600E58229F582E5833AF583E4932220
:10032300EF8DF0A4A8F0CF8CF0A428CE8DF0A42EEE
:02033300FE22A8
:10033500BC000BBE0029EF8DF084FFADF022E4CCAC
:10034500F875F008EF2FFFEE33FEEC33FCEE9DEC75
:10035500984005FCEE9DFE0FD5F0E9E4CEFD22EDBB
:10036500F8F5F0EE8420D21CFEADF075F008EF2F05
:10037500FFED33FD4007985006D5F0F222C398FDF6
:050385000FD5F0EA2293
:10039600020416E493A3F8E493A34003F68001F263
:1003A60008DFF48029E493A3F85407240CC8C33368
:1003B600C4540F4420C8834004F456800146F6DF37
:1003C600E4800B0102040810204080900660E47E61
:1003D600019360BCA3FF543F30E509541FFEE4932C
:1003E600A360010ECF54C025E060A840B8E493A3F3
:1003F600FAE493A3F8E493A3C8C582C8CAC583CA1E
:10040600F0A3C8C582C8CAC583CADFE9DEE780BED5
:010698000061
:00000001FF
