:0605570001360001330033
:1004750012064B1206DF8F37EF64017028053453DF
:100485003403AF34FEEF7004F5358019EF64014E87
:100495007005753532800EEF64024E700575355066
:0E04A5008003753564AD347F0112000380C5FD
:03000B000202B737
:1002B700C0E0C0F0C083C082C0D075D000C000C00D
:0D02C70001C002C003C004C005C006C0078E
:1002D400758AA4758CFF0536E53675F0648485F05F
:1002E40036E536D395354006C2A1C2908004D2A12A
:1002F400D2900532D3E532940A7480948040061279
:10030400062E7532000533D3E5339414748094803B
:080314004006120432753300AB
:10031C00D007D006D005D004D003D002D001D00035
:0B032C00D0D0D082D083D0F0D0E032DF
:10067800EF4E600F7D027CEFDCFEDDFCEF1F70F0BB
:030688001E80EDE4
:01068B00224C
:10064B005389F0438901758A66758CFCC28DD28CF7
:07065B00D2A9D2AFC2B922FF
:10000E00E4F5517590FFC2932097137F14FE1206EC
:10001E00783097FD7F147E00120678755101209678
:10002E00147F147E001206783096FD7F147E001227
:10003E0006787551052095147F147E0012067830CF
:10004E0095FD7F147E001206787551092094147F59
:10005E00147E001206783094FD7F147E001206780E
:10006E0075510D7590FFC2922097147F147E001269
:10007E0006783097FD7F147E0012067875510220A7
:10008E0096147F147E001206783096FD7F147E0043
:10009E001206787551062095147F147E001206788C
:1000AE003095FD7F147E0012067875510A20941447
:1000BE007F147E001206783094FD7F147E001206A7
:1000CE007875510E7590FFC2912097147F147E00A3
:1000DE001206783097FD7F147E0012067875510354
:1000EE002096147F147E001206783096FD7F147EC3
:1000FE00001206787551072095147F147E001206A3
:10010E00783095FD7F147E0012067875510B209481
:10011E00147F147E001206783094FD7F147E001238
:10012E00067875510F7590FFC2902097147F147E3C
:10013E00001206783097FD7F147E001206787551F6
:10014E00042096147F147E001206783096FD7F14DC
:10015E007E001206787551082095147F147E0012C9
:10016E0006783095FD7F147E0012067875510C20AE
:10017E0094147F147E001206783094FD7F147E0056
:08018E00120678755110AF5103
:010196002246
:0506DF00AF4DE4F54DF4
:0106E40022F3
:10066200E4FF20B1010F20B0027F0220B2027F031B
:0506720020B3027F042B
:010677002260
:10043200854B4C1206628F4BAF4C7E00EF6401700D
:1004420008E54B7004754D0122EF64024E7008E519
:100452004B7004754D0222E54C64037008E54B7045
:1004620004754D0322E54C64047007E54B70037577
:020472004D0437
:010474002265
:1006A000202020202020202020202020202020204A
:0106B0000049
:10055D00090910101010101010101019123F065B21
:10056D004F666D7D077F6F777C395E797100201046
:09057D000102044008800108019C
:0700030074092FF8A6052285
:10033700E4F580EF14B40800505490034F75F003B0
:10034700A4C58325F0C5837302036702036B020309
:100357006F02037302037702037F02038702038F8F
:10036700D2A4800ED2A48012D2A48016D2A4801A5E
:10037700C2A4D2A3D2A28016C2A4D2A3C2A2800EC4
:10038700C2A4C2A3D2A28006C2A4C2A3C2A27412EC
:060397002DF8E6F58022BE
:10062E0074092508F8E6FDAF081203370508D3E56F
:0C063E0008940874809480400375080143
:01064A00228D
:0606B100C2A58F80D2A754
:0806B7007F027EEFDEFEDFFC96
:0106BF002218
:0A06CB00C2A61206B1C2A70206B7CC
:1005F200CFCDCFCECCCE1201D67C007D0A1201D651
:04060200ED2430FFB4
:0A060600D2A61206B1C2A70206B781
:10061000AE07EEFB7A0064017004ED148009EB6410
:0E062000024A7009ED243F4480FF1206CB22EF
:10068C007F381206CB7F0C1206CB7F061206CB7F6F
:04069C00010206CB86
:0A06D500AC03120610AF0402060683
:0605CF008B4E8A4F89509B
:1005D500120610E4FDAB4EAA4FA9508D827583001B
:0C05E500120197FF60061206060D80E967
:0105F10022E7
:0A052600EF24FFFDEE34FFFC7F0A16
:080530008E478F488C498D4A6B
:100538007F017E00E4FBEBC3954AE5496480F874CB
:0E0548008098500AAC47AD481201C40B80E801
:010556002282
:040587008A3A8B3BE6
:10058B00120610AA3CEAFF7E00D39400748094807C
:0F059B00400D120526AC3AAD3B1205F21A80E670
:0105AA00222E
:0403E8008B828A83F7
:1003EC00120610C3E58364809480400D7F2B1206A7
:1003FC000685833085823180107F2D120606C3E47A
:10040C009582F531E49583F530AA2FEAFF7E00D36F
:10041C00940074809480400D120526AC30AD3112DE
:05042C0005F21A80E654
:0104310022A8
:04039D008A3F8B40C8
:1003A100120610AA41EAD39400748094804037EA7F
:1003B10024FFFDE434FFFC7F107E00120530AC3FCA
:1003C100AD40CFCDCFCECCCE1201D6EF540FFEC370
:1003D100940A74809480EE5004243080022437FF04
:0603E1001206061A80BF9F
:0103E70022F3
:0404B3008A448B45A7
:1004B700120610AA46EAFF7E00D394007480948047
:1004C7004026EF24FFFDEE34FFFC7F02120530AC1F
:1004D70044AD45CFCDCFCECCCE1201D6EF540124BB
:0804E70030FF1206061A80CD59
:0104EF0022EA
:0B06C0007BFF7A0679A07D010205CFC8
:0204F000AD0756
:1004F200E4FBEBC394087480948050237E007480E4
:10050200A803088006CEA2E713CE13D8F8FFEDF5B4
:1005120082EF558224FF92B4D2B6C2B60B80D3D2F8
:03052200B5C2B5AA
:0105250022B3
:1005AB00AE05AC07AF061204F0AF04A807748008C1
:1005BB008002C313D8FCF4F5807F017E001206780D
:0405CB007580FF2216
:0506E500C2B6C2B522FF
:0300000002022BCE
:0C022B00787FE4F6D8FD75815102027264
:10019700BB010CE58229F582E5833AF583E022501D
:1001A70006E92582F8E622BBFE06E92582F8E22267
:0D01B700E58229F582E5833AF583E4932281
:1001C400EF8DF0A4A8F0CF8CF0A428CE8DF0A42E4F
:0201D400FE2209
:1001D600BC000BBE0029EF8DF084FFADF022E4CC0D
:1001E600F875F008EF2FFFEE33FEEC33FCEE9DECD6
:1001F600984005FCEE9DFE0FD5F0E9E4CEFD22ED1C
:10020600F8F5F0EE8420D21CFEADF075F008EF2F65
:10021600FFED33FD4007985006D5F0F222C398FD56
:050226000FD5F0EA22F3
:10023700020475E493A3F8E493A34003F68001F264
:1002470008DFF48029E493A3F85407240CC8C333C8
:10025700C4540F4420C8834004F456800146F6DF97
:10026700E4800B0102040810204080900557E47ECB
:10027700019360BCA3FF543F30E509541FFEE4938C
:10028700A360010ECF54C025E060A840B8E493A353
:10029700FAE493A3F8E493A3C8C582C8CAC583CA7E
:1002A700F0A3C8C582C8CAC583CADFE9DEE780BE36
:010586000074
:00000001FF
